{
  "_format": "hh-sol-artifact-1",
  "contractName": "ExposureTest",
  "sourceName": "contracts/ExposureTest.sol",
  "abi": [
    {
      "inputs": [],
      "stateMutability": "nonpayable",
      "type": "constructor"
    },
    {
      "inputs": [],
      "name": "InvalidShortString",
      "type": "error"
    },
    {
      "inputs": [],
      "name": "SignerNotMessageSender",
      "type": "error"
    },
    {
      "inputs": [],
      "name": "SignerNotOwner",
      "type": "error"
    },
    {
      "inputs": [
        {
          "internalType": "string",
          "name": "str",
          "type": "string"
        }
      ],
      "name": "StringTooLong",
      "type": "error"
    },
    {
      "anonymous": false,
      "inputs": [],
      "name": "EIP712DomainChanged",
      "type": "event"
    },
    {
      "inputs": [],
      "name": "eip712Domain",
      "outputs": [
        {
          "internalType": "bytes1",
          "name": "fields",
          "type": "bytes1"
        },
        {
          "internalType": "string",
          "name": "name",
          "type": "string"
        },
        {
          "internalType": "string",
          "name": "version",
          "type": "string"
        },
        {
          "internalType": "uint256",
          "name": "chainId",
          "type": "uint256"
        },
        {
          "internalType": "address",
          "name": "verifyingContract",
          "type": "address"
        },
        {
          "internalType": "bytes32",
          "name": "salt",
          "type": "bytes32"
        },
        {
          "internalType": "uint256[]",
          "name": "extensions",
          "type": "uint256[]"
        }
      ],
      "stateMutability": "view",
      "type": "function"
    },
    {
      "inputs": [],
      "name": "publicEuint32",
      "outputs": [
        {
          "internalType": "euint32",
          "name": "",
          "type": "uint256"
        }
      ],
      "stateMutability": "view",
      "type": "function"
    },
    {
      "inputs": [
        {
          "components": [
            {
              "internalType": "bytes32",
              "name": "publicKey",
              "type": "bytes32"
            },
            {
              "internalType": "bytes",
              "name": "signature",
              "type": "bytes"
            }
          ],
          "internalType": "struct Permission",
          "name": "",
          "type": "tuple"
        }
      ],
      "name": "test_behindPermitNotExposed",
      "outputs": [
        {
          "internalType": "euint32",
          "name": "",
          "type": "uint256"
        }
      ],
      "stateMutability": "pure",
      "type": "function"
    },
    {
      "inputs": [],
      "name": "test_namedStructOutput",
      "outputs": [
        {
          "components": [
            {
              "internalType": "uint256",
              "name": "a",
              "type": "uint256"
            },
            {
              "internalType": "uint256",
              "name": "b",
              "type": "uint256"
            },
            {
              "internalType": "euint32",
              "name": "c",
              "type": "uint256"
            },
            {
              "internalType": "ebool",
              "name": "d",
              "type": "uint256"
            },
            {
              "internalType": "eaddress[]",
              "name": "e",
              "type": "uint256[]"
            }
          ],
          "internalType": "struct ExposureTest.OutputStruct",
          "name": "outputStruct",
          "type": "tuple"
        }
      ],
      "stateMutability": "view",
      "type": "function"
    },
    {
      "inputs": [],
      "name": "test_publicGetterOfPrivateVar",
      "outputs": [
        {
          "internalType": "euint32",
          "name": "",
          "type": "uint256"
        }
      ],
      "stateMutability": "view",
      "type": "function"
    },
    {
      "inputs": [],
      "name": "test_structOutput",
      "outputs": [
        {
          "components": [
            {
              "internalType": "uint256",
              "name": "a",
              "type": "uint256"
            },
            {
              "internalType": "uint256",
              "name": "b",
              "type": "uint256"
            },
            {
              "internalType": "euint32",
              "name": "c",
              "type": "uint256"
            },
            {
              "internalType": "ebool",
              "name": "d",
              "type": "uint256"
            },
            {
              "internalType": "eaddress[]",
              "name": "e",
              "type": "uint256[]"
            }
          ],
          "internalType": "struct ExposureTest.OutputStruct",
          "name": "",
          "type": "tuple"
        }
      ],
      "stateMutability": "pure",
      "type": "function"
    },
    {
      "inputs": [],
      "name": "test_tupleOutput",
      "outputs": [
        {
          "internalType": "euint32",
          "name": "a",
          "type": "uint256"
        },
        {
          "internalType": "euint32",
          "name": "b",
          "type": "uint256"
        },
        {
          "internalType": "euint32",
          "name": "c",
          "type": "uint256"
        }
      ],
      "stateMutability": "view",
      "type": "function"
    }
  ],
  "bytecode": "0x6101606040526200001160046200012f565b6002556200002060056200012f565b6003553480156200003057600080fd5b506040805180820182526011815270233432b734bc102832b936b4b9b9b4b7b760791b602080830191909152825180840190935260038352620312e360ec1b90830152906200008182600062000145565b610120526200009281600162000145565b61014052815160208084019190912060e052815190820120610100524660a0526200012060e05161010051604080517f8b73c3c69bb8fe3d512ecc4cf759cc79239f7b179b0ffacaa9a75d522b39400f60208201529081019290925260608201524660808201523060a082015260009060c00160405160208183030381529060405280519060200120905090565b60805250503060c0526200057a565b60006200013f826002836200017c565b92915050565b600060208351101562000165576200015d8362000213565b90506200013f565b8162000172848262000330565b5060ff9392505050565b60006060608063ba19ac2862000192876200025f565b86866040518463ffffffff1660e01b8152600401620001b49392919062000450565b600060405180830381865afa158015620001d2573d6000803e3d6000fd5b505050506040513d6000823e601f3d908101601f19168201604052620001fc919081019062000481565b90506200020a816020015190565b95945050505050565b600080829050601f815111156200024a578260405163305a27a960e01b815260040162000241919062000539565b60405180910390fd5b8051620002578262000555565b179392505050565b60408051602080825281830190925260609160208201818036833750505060208101929092525090565b634e487b7160e01b600052604160045260246000fd5b600181811c90821680620002b457607f821691505b602082108103620002d557634e487b7160e01b600052602260045260246000fd5b50919050565b601f8211156200032b576000816000526020600020601f850160051c81016020861015620003065750805b601f850160051c820191505b81811015620003275782815560010162000312565b5050505b505050565b81516001600160401b038111156200034c576200034c62000289565b62000364816200035d84546200029f565b84620002db565b602080601f8311600181146200039c5760008415620003835750858301515b600019600386901b1c1916600185901b17855562000327565b600085815260208120601f198616915b82811015620003cd57888601518255948401946001909101908401620003ac565b5085821015620003ec5787850151600019600388901b60f8161c191681555b5050505050600190811b01905550565b60005b8381101562000419578181015183820152602001620003ff565b50506000910152565b600081518084526200043c816020860160208601620003fc565b601f01601f19169290920160200192915050565b60608152600062000465606083018662000422565b905060ff841660208301528260030b6040830152949350505050565b6000602082840312156200049457600080fd5b81516001600160401b0380821115620004ac57600080fd5b818401915084601f830112620004c157600080fd5b815181811115620004d657620004d662000289565b604051601f8201601f19908116603f0116810190838211818310171562000501576200050162000289565b816040528281528760208487010111156200051b57600080fd5b6200052e836020830160208801620003fc565b979650505050505050565b6020815260006200054e602083018462000422565b9392505050565b80516020808301519190811015620002d55760001960209190910360031b1b16919050565b60805160a05160c05160e0516101005161012051610140516108af620005c660003960006102a201526000610270015260005050600050506000505060005050600050506108af6000f3fe608060405234801561001057600080fd5b506004361061007d5760003560e01c8063673931151161005b57806367393115146100dc57806384b0196e146100e55780638f88fe0b146101005780639f8a61931461010857600080fd5b80632d435951146100825780632d81cea9146100a8578063637d8e1b146100bd575b600080fd5b610095610090366004610570565b610110565b6040519081526020015b60405180910390f35b6100b0610122565b60405161009f9190610629565b600080806040805193845260208401929092529082015260600161009f565b61009560025481565b6100ed610157565b60405161009f97969594939291906106f3565b6100b061019d565b600354610095565b600061011c600561025a565b92915050565b6101546040518060a0016040528060008152602001600081526020016000815260200160008152602001606081525090565b90565b60006060806000806000606061016b610269565b61017361029b565b60408051600080825260208201909252600f60f81b9b939a50919850469750309650945092509050565b6101cf6040518060a0016040528060008152602001600081526020016000815260200160008152602001606081525090565b604080516001808252818301909252600091602080830190803683370190505090506101fb60026102c8565b8160008151811061020e5761020e61078c565b6020026020010181815250506040518060a00160405280600081526020016000815260200161023d600561025a565b815260200161024c60016102e0565b815260200191909152919050565b600061011c82600260006102fd565b60606102967f0000000000000000000000000000000000000000000000000000000000000000600061038c565b905090565b60606102967f0000000000000000000000000000000000000000000000000000000000000000600161038c565b600061011c826001600160a01b0316600c60006102fd565b60008082156102ed575060015b6102f681610438565b9392505050565b60006060608063ba19ac2861031187610447565b86866040518463ffffffff1660e01b8152600401610331939291906107a2565b600060405180830381865afa15801561034e573d6000803e3d6000fd5b505050506040513d6000823e601f3d908101601f1916820160405261037691908101906107d1565b9050610383816020015190565b95945050505050565b606060ff83146103a65761039f83610471565b905061011c565b8180546103b29061083f565b80601f01602080910402602001604051908101604052809291908181526020018280546103de9061083f565b801561042b5780601f106104005761010080835404028352916020019161042b565b820191906000526020600020905b81548152906001019060200180831161040e57829003601f168201915b5050505050905092915050565b600061011c82600d60006102fd565b60408051602080825281830190925260609160208201818036833750505060208101929092525090565b6060600061047e836104b0565b604080516020808252818301909252919250600091906020820181803683375050509182525060208101929092525090565b600060ff8216601f81111561011c57604051632cd44ac360e21b815260040160405180910390fd5b634e487b7160e01b600052604160045260246000fd5b6040805190810167ffffffffffffffff81118282101715610511576105116104d8565b60405290565b604051601f8201601f1916810167ffffffffffffffff81118282101715610540576105406104d8565b604052919050565b600067ffffffffffffffff821115610562576105626104d8565b50601f01601f191660200190565b6000602080838503121561058357600080fd5b823567ffffffffffffffff8082111561059b57600080fd5b90840190604082870312156105af57600080fd5b6105b76104ee565b8235815283830135828111156105cc57600080fd5b80840193505086601f8401126105e157600080fd5b823591506105f66105f183610548565b610517565b828152878584860101111561060a57600080fd5b8285850186830137600092810185019290925292830152509392505050565b6000602080835260c083018451828501528185015160408501526040850151606085015260608501516080850152608085015160a08086015281815180845260e0870191508483019350600092505b808310156106985783518252928401926001929092019190840190610678565b509695505050505050565b60005b838110156106be5781810151838201526020016106a6565b50506000910152565b600081518084526106df8160208601602086016106a3565b601f01601f19169290920160200192915050565b60ff60f81b881681526000602060e0602084015261071460e084018a6106c7565b8381036040850152610726818a6106c7565b606085018990526001600160a01b038816608086015260a0850187905284810360c08601528551808252602080880193509091019060005b8181101561077a5783518352928401929184019160010161075e565b50909c9b505050505050505050505050565b634e487b7160e01b600052603260045260246000fd5b6060815260006107b560608301866106c7565b905060ff841660208301528260030b6040830152949350505050565b6000602082840312156107e357600080fd5b815167ffffffffffffffff8111156107fa57600080fd5b8201601f8101841361080b57600080fd5b80516108196105f182610548565b81815285602083850101111561082e57600080fd5b6103838260208301602086016106a3565b600181811c9082168061085357607f821691505b60208210810361087357634e487b7160e01b600052602260045260246000fd5b5091905056fea26469706673582212204c9c62d5c13eb3939b260ffeb4ee63c8ae622fdefc7b5e9e02f393098954129f64736f6c63430008180033",
  "linkReferences": {},
  "deployedLinkReferences": {}
}