{"contracts/MockFheOps.sol":{"MockFheOps":{"abi":[{"inputs":[{"internalType":"uint8","name":"utype","type":"uint8"},{"internalType":"bytes","name":"lhsHash","type":"bytes"},{"internalType":"bytes","name":"rhsHash","type":"bytes"}],"name":"add","outputs":[{"internalType":"bytes","name":"","type":"bytes"}],"stateMutability":"pure","type":"function"},{"inputs":[{"internalType":"uint8","name":"utype","type":"uint8"},{"internalType":"bytes","name":"lhsHash","type":"bytes"},{"internalType":"bytes","name":"rhsHash","type":"bytes"}],"name":"and","outputs":[{"internalType":"bytes","name":"","type":"bytes"}],"stateMutability":"pure","type":"function"},{"inputs":[{"internalType":"bool","name":"value","type":"bool"}],"name":"boolToBytes","outputs":[{"internalType":"bytes","name":"","type":"bytes"}],"stateMutability":"pure","type":"function"},{"inputs":[{"internalType":"uint8","name":"","type":"uint8"},{"internalType":"bytes","name":"input","type":"bytes"},{"internalType":"uint8","name":"toType","type":"uint8"}],"name":"cast","outputs":[{"internalType":"bytes","name":"","type":"bytes"}],"stateMutability":"pure","type":"function"},{"inputs":[{"internalType":"uint8","name":"","type":"uint8"},{"internalType":"bytes","name":"input","type":"bytes"}],"name":"decrypt","outputs":[{"internalType":"uint256","name":"","type":"uint256"}],"stateMutability":"pure","type":"function"},{"inputs":[{"internalType":"uint8","name":"utype","type":"uint8"},{"internalType":"bytes","name":"lhsHash","type":"bytes"},{"internalType":"bytes","name":"rhsHash","type":"bytes"}],"name":"div","outputs":[{"internalType":"bytes","name":"","type":"bytes"}],"stateMutability":"pure","type":"function"},{"inputs":[{"internalType":"uint8","name":"utype","type":"uint8"},{"internalType":"bytes","name":"lhsHash","type":"bytes"},{"internalType":"bytes","name":"rhsHash","type":"bytes"}],"name":"eq","outputs":[{"internalType":"bytes","name":"","type":"bytes"}],"stateMutability":"pure","type":"function"},{"inputs":[{"internalType":"int32","name":"","type":"int32"}],"name":"getNetworkPublicKey","outputs":[{"internalType":"bytes","name":"","type":"bytes"}],"stateMutability":"pure","type":"function"},{"inputs":[{"internalType":"uint8","name":"utype","type":"uint8"},{"internalType":"bytes","name":"lhsHash","type":"bytes"},{"internalType":"bytes","name":"rhsHash","type":"bytes"}],"name":"gt","outputs":[{"internalType":"bytes","name":"","type":"bytes"}],"stateMutability":"pure","type":"function"},{"inputs":[{"internalType":"uint8","name":"utype","type":"uint8"},{"internalType":"bytes","name":"lhsHash","type":"bytes"},{"internalType":"bytes","name":"rhsHash","type":"bytes"}],"name":"gte","outputs":[{"internalType":"bytes","name":"","type":"bytes"}],"stateMutability":"pure","type":"function"},{"inputs":[{"internalType":"string","name":"s","type":"string"}],"name":"log","outputs":[],"stateMutability":"pure","type":"function"},{"inputs":[{"internalType":"uint8","name":"utype","type":"uint8"},{"internalType":"bytes","name":"lhsHash","type":"bytes"},{"internalType":"bytes","name":"rhsHash","type":"bytes"}],"name":"lt","outputs":[{"internalType":"bytes","name":"","type":"bytes"}],"stateMutability":"pure","type":"function"},{"inputs":[{"internalType":"uint8","name":"utype","type":"uint8"},{"internalType":"bytes","name":"lhsHash","type":"bytes"},{"internalType":"bytes","name":"rhsHash","type":"bytes"}],"name":"lte","outputs":[{"internalType":"bytes","name":"","type":"bytes"}],"stateMutability":"pure","type":"function"},{"inputs":[{"internalType":"uint8","name":"utype","type":"uint8"},{"internalType":"bytes","name":"lhsHash","type":"bytes"},{"internalType":"bytes","name":"rhsHash","type":"bytes"}],"name":"max","outputs":[{"internalType":"bytes","name":"","type":"bytes"}],"stateMutability":"pure","type":"function"},{"inputs":[{"internalType":"uint8","name":"utype","type":"uint8"}],"name":"maxValue","outputs":[{"internalType":"uint256","name":"","type":"uint256"}],"stateMutability":"pure","type":"function"},{"inputs":[{"internalType":"uint8","name":"utype","type":"uint8"},{"internalType":"bytes","name":"lhsHash","type":"bytes"},{"internalType":"bytes","name":"rhsHash","type":"bytes"}],"name":"min","outputs":[{"internalType":"bytes","name":"","type":"bytes"}],"stateMutability":"pure","type":"function"},{"inputs":[{"internalType":"uint8","name":"utype","type":"uint8"},{"internalType":"bytes","name":"lhsHash","type":"bytes"},{"internalType":"bytes","name":"rhsHash","type":"bytes"}],"name":"mul","outputs":[{"internalType":"bytes","name":"","type":"bytes"}],"stateMutability":"pure","type":"function"},{"inputs":[{"internalType":"uint8","name":"utype","type":"uint8"},{"internalType":"bytes","name":"lhsHash","type":"bytes"},{"internalType":"bytes","name":"rhsHash","type":"bytes"}],"name":"ne","outputs":[{"internalType":"bytes","name":"","type":"bytes"}],"stateMutability":"pure","type":"function"},{"inputs":[{"internalType":"uint8","name":"utype","type":"uint8"},{"internalType":"bytes","name":"value","type":"bytes"}],"name":"not","outputs":[{"internalType":"bytes","name":"","type":"bytes"}],"stateMutability":"pure","type":"function"},{"inputs":[{"internalType":"uint8","name":"utype","type":"uint8"},{"internalType":"bytes","name":"lhsHash","type":"bytes"},{"internalType":"bytes","name":"rhsHash","type":"bytes"}],"name":"or","outputs":[{"internalType":"bytes","name":"","type":"bytes"}],"stateMutability":"pure","type":"function"},{"inputs":[{"internalType":"uint8","name":"utype","type":"uint8"},{"internalType":"uint64","name":"","type":"uint64"},{"internalType":"int32","name":"","type":"int32"}],"name":"random","outputs":[{"internalType":"bytes","name":"","type":"bytes"}],"stateMutability":"pure","type":"function"},{"inputs":[{"internalType":"uint8","name":"utype","type":"uint8"},{"internalType":"bytes","name":"lhsHash","type":"bytes"},{"internalType":"bytes","name":"rhsHash","type":"bytes"}],"name":"rem","outputs":[{"internalType":"bytes","name":"","type":"bytes"}],"stateMutability":"pure","type":"function"},{"inputs":[{"internalType":"uint8","name":"","type":"uint8"},{"internalType":"bytes","name":"input","type":"bytes"}],"name":"req","outputs":[{"internalType":"bytes","name":"","type":"bytes"}],"stateMutability":"pure","type":"function"},{"inputs":[{"internalType":"uint8","name":"","type":"uint8"},{"internalType":"bytes","name":"ctHash","type":"bytes"},{"internalType":"bytes","name":"","type":"bytes"}],"name":"sealOutput","outputs":[{"internalType":"string","name":"","type":"string"}],"stateMutability":"pure","type":"function"},{"inputs":[{"internalType":"uint8","name":"","type":"uint8"},{"internalType":"bytes","name":"controlHash","type":"bytes"},{"internalType":"bytes","name":"ifTrueHash","type":"bytes"},{"internalType":"bytes","name":"ifFalseHash","type":"bytes"}],"name":"select","outputs":[{"internalType":"bytes","name":"","type":"bytes"}],"stateMutability":"pure","type":"function"},{"inputs":[{"internalType":"uint8","name":"","type":"uint8"},{"internalType":"bytes","name":"lhsHash","type":"bytes"},{"internalType":"bytes","name":"rhsHash","type":"bytes"}],"name":"shl","outputs":[{"internalType":"bytes","name":"","type":"bytes"}],"stateMutability":"pure","type":"function"},{"inputs":[{"internalType":"uint8","name":"","type":"uint8"},{"internalType":"bytes","name":"lhsHash","type":"bytes"},{"internalType":"bytes","name":"rhsHash","type":"bytes"}],"name":"shr","outputs":[{"internalType":"bytes","name":"","type":"bytes"}],"stateMutability":"pure","type":"function"},{"inputs":[{"internalType":"uint8","name":"utype","type":"uint8"},{"internalType":"bytes","name":"lhsHash","type":"bytes"},{"internalType":"bytes","name":"rhsHash","type":"bytes"}],"name":"sub","outputs":[{"internalType":"bytes","name":"","type":"bytes"}],"stateMutability":"pure","type":"function"},{"inputs":[{"internalType":"bytes","name":"input","type":"bytes"},{"internalType":"uint8","name":"toType","type":"uint8"},{"internalType":"int32","name":"","type":"int32"}],"name":"trivialEncrypt","outputs":[{"internalType":"bytes","name":"","type":"bytes"}],"stateMutability":"pure","type":"function"},{"inputs":[{"internalType":"uint256","name":"value","type":"uint256"}],"name":"uint256ToBytes","outputs":[{"internalType":"bytes","name":"","type":"bytes"}],"stateMutability":"pure","type":"function"},{"inputs":[{"internalType":"uint8","name":"","type":"uint8"},{"internalType":"bytes","name":"input","type":"bytes"},{"internalType":"int32","name":"","type":"int32"}],"name":"verify","outputs":[{"internalType":"bytes","name":"","type":"bytes"}],"stateMutability":"pure","type":"function"},{"inputs":[{"internalType":"uint8","name":"utype","type":"uint8"},{"internalType":"bytes","name":"lhsHash","type":"bytes"},{"internalType":"bytes","name":"rhsHash","type":"bytes"}],"name":"xor","outputs":[{"internalType":"bytes","name":"","type":"bytes"}],"stateMutability":"pure","type":"function"}],"evm":{"bytecode":{"linkReferences":{},"object":"608060405234801561001057600080fd5b506122e8806100206000396000f3fe608060405234801561001057600080fd5b50600436106101ef5760003560e01c8063874b1c101161010f578063b9c7a54b116100a2578063cc2cbeff11610071578063cc2cbeff14610720578063d260d9ab14610750578063eb274b7714610780578063eb376804146107b0576101ef565b8063b9c7a54b14610660578063ba19ac2814610690578063c2d96952146106c0578063c7559da4146106f0576101ef565b8063aa626e8a116100de578063aa626e8a146105a0578063ae104cfd146105d0578063ae42450a14610600578063b8fa104314610630576101ef565b8063874b1c10146104e057806392348b34146105105780639944d12d14610540578063a1848ff314610570576101ef565b80634a5a111711610187578063650de1cf11610156578063650de1cf1461042057806372d456f51461045057806373cc0154146104805780637d23f1db146104b0576101ef565b80634a5a1117146103605780635211c6791461039057806355e5e6c5146103c05780635e639f19146103f0576101ef565b80631f4cda2f116101c35780631f4cda2f146102b457806321b50ba3146102e457806341304fac146103145780634284f76514610330576101ef565b80622df619146101f45780630b80518e1461022457806313c0c9ae146102545780631b1b484e14610284575b600080fd5b61020e600480360381019061020991906116ca565b6107e0565b60405161021b91906117d4565b60405180910390f35b61023e600480360381019061023991906116ca565b610828565b60405161024b91906117d4565b60405180910390f35b61026e600480360381019061026991906116ca565b610889565b60405161027b91906117d4565b60405180910390f35b61029e6004803603810190610299919061182f565b6108dc565b6040516102ab91906117d4565b60405180910390f35b6102ce60048036038101906102c991906116ca565b610904565b6040516102db91906117d4565b60405180910390f35b6102fe60048036038101906102f9919061185c565b61094c565b60405161030b91906117d4565b60405180910390f35b61032e6004803603810190610329919061196c565b610958565b005b61034a600480360381019061034591906116ca565b610964565b60405161035791906117d4565b60405180910390f35b61037a600480360381019061037591906119b5565b6109ac565b60405161038791906117d4565b60405180910390f35b6103aa60048036038101906103a591906116ca565b6109d0565b6040516103b791906117d4565b60405180910390f35b6103da60048036038101906103d59190611a24565b610a31565b6040516103e79190611a6a565b60405180910390f35b61040a600480360381019061040591906116ca565b610bfa565b60405161041791906117d4565b60405180910390f35b61043a600480360381019061043591906116ca565b610c29565b60405161044791906117d4565b60405180910390f35b61046a600480360381019061046591906116ca565b610c7c565b60405161047791906117d4565b60405180910390f35b61049a60048036038101906104959190611a85565b610cab565b6040516104a79190611a6a565b60405180910390f35b6104ca60048036038101906104c59190611a85565b610cc3565b6040516104d791906117d4565b60405180910390f35b6104fa60048036038101906104f591906116ca565b610cce565b60405161050791906117d4565b60405180910390f35b61052a600480360381019061052591906116ca565b610d20565b60405161053791906117d4565b60405180910390f35b61055a600480360381019061055591906116ca565b610d72565b60405161056791906117d4565b60405180910390f35b61058a600480360381019061058591906116ca565b610dab565b6040516105979190611b36565b60405180910390f35b6105ba60048036038101906105b59190611b98565b610dcd565b6040516105c791906117d4565b60405180910390f35b6105ea60048036038101906105e591906116ca565b610de9565b6040516105f791906117d4565b60405180910390f35b61061a600480360381019061061591906116ca565b610e18565b60405161062791906117d4565b60405180910390f35b61064a60048036038101906106459190611c23565b610e51565b60405161065791906117d4565b60405180910390f35b61067a600480360381019061067591906116ca565b610f4a565b60405161068791906117d4565b60405180910390f35b6106aa60048036038101906106a59190611c50565b610f9c565b6040516106b791906117d4565b60405180910390f35b6106da60048036038101906106d59190611cbf565b610fa8565b6040516106e791906117d4565b60405180910390f35b61070a60048036038101906107059190611da6565b610fd3565b60405161071791906117d4565b60405180910390f35b61073a600480360381019061073591906116ca565b611036565b60405161074791906117d4565b60405180910390f35b61076a60048036038101906107659190611a85565b61107e565b60405161077791906117d4565b60405180910390f35b61079a600480360381019061079591906116ca565b6110a2565b6040516107a791906117d4565b60405180910390f35b6107ca60048036038101906107c591906116ca565b6110f5565b6040516107d791906117d4565b60405180910390f35b606060006107ed85610a31565b6107f68461113d565b6107ff8661113d565b6108099190611e02565b6108139190611e65565b905061081e81610fd3565b9150509392505050565b6060600061083585610a31565b61083e8461113d565b6108489190611e65565b61085186610a31565b61085a8661113d565b6108649190611e65565b10159050600115158115150361087d5783915050610882565b829150505b9392505050565b6060600061089685610a31565b61089f8461113d565b6108a99190611e65565b6108b286610a31565b6108bb8661113d565b6108c59190611e65565b141590506108d281610e51565b9150509392505050565b6060600060405180608001604052806041815260200161227260419139905080915050919050565b6060600061091185610a31565b61091a8461113d565b6109238661113d565b61092d9190611e96565b6109379190611e65565b905061094281610fd3565b9150509392505050565b60608290509392505050565b6109618161121f565b50565b6060600061097185610a31565b61097a8461113d565b6109838661113d565b61098d9190611ec7565b6109979190611e65565b90506109a281610fd3565b9150509392505050565b60606000836109ba90611f45565b90506109c681846112b8565b9150509392505050565b606060006109dd85610a31565b6109e68461113d565b6109f09190611e65565b6109f986610a31565b610a028661113d565b610a0c9190611e65565b101590506001151581151503610a255782915050610a2a565b839150505b9392505050565b6000806000905060008360ff1603610a5a57600160ff8016610a539190611e02565b9050610bf1565b60018360ff1603610a7d57600161ffff8016610a769190611e02565b9050610bf0565b60028360ff1603610aa257600163ffffffff8016610a9b9190611e02565b9050610bef565b60038360ff1603610acb57600167ffffffffffffffff8016610ac49190611e02565b9050610bee565b60048360ff1603610afc5760016fffffffffffffffffffffffffffffffff8016610af59190611e02565b9050610bed565b60058360ff1603610b105760019050610bec565b60058360ff16118015610b265750600c8360ff16105b15610b66576040517f08c379a0000000000000000000000000000000000000000000000000000000008152600401610b5d90611ff8565b60405180910390fd5b600c8360ff1603610b9b57600173ffffffffffffffffffffffffffffffffffffffff8016610b949190611e02565b9050610beb565b600d8360ff1603610baf5760019050610bea565b6040517f08c379a0000000000000000000000000000000000000000000000000000000008152600401610be190611ff8565b60405180910390fd5b5b5b5b5b5b5b5b80915050919050565b6060600082610c0890611f45565b84610c1290611f45565b189050610c1f81866112b8565b9150509392505050565b60606000610c3685610a31565b610c3f8461113d565b610c499190611e65565b610c5286610a31565b610c5b8661113d565b610c659190611e65565b10159050610c7281610e51565b9150509392505050565b6060600082610c8a90611f45565b84610c9490611f45565b179050610ca181866112b8565b9150509392505050565b600080610cb78361113d565b90508091505092915050565b606081905092915050565b60606000610cdb85610a31565b610ce48461113d565b610cee9190611e65565b610cf786610a31565b610d008661113d565b610d0a9190611e65565b119050610d1681610e51565b9150509392505050565b60606000610d2d85610a31565b610d368461113d565b610d409190611e65565b610d4986610a31565b610d528661113d565b610d5c9190611e65565b149050610d6881610e51565b9150509392505050565b60606000610d7f8461113d565b90506000610d8c8461113d565b905060008183901c9050610d9f81610fd3565b93505050509392505050565b60606000610dc0610dbb8561113d565b6112e2565b9050809150509392505050565b6060610de0610ddb85610a31565b610fd3565b90509392505050565b6060600082610df790611f45565b84610e0190611f45565b169050610e0e81866112b8565b9150509392505050565b60606000610e258461113d565b90506000610e328461113d565b905060008183901b9050610e4581610fd3565b93505050509392505050565b60606000600167ffffffffffffffff811115610e7057610e6f61159f565b5b6040519080825280601f01601f191660200182016040528015610ea25781602001600182028036833780820191505090505b5090508215610ef857600160f81b81600081518110610ec457610ec3612018565b5b60200101907effffffffffffffffffffffffffffffffffffffffffffffffffffffffffffff1916908160001a905350610f41565b600060f81b81600081518110610f1157610f10612018565b5b60200101907effffffffffffffffffffffffffffffffffffffffffffffffffffffffffffff1916908160001a9053505b80915050919050565b60606000610f5785610a31565b610f608461113d565b610f6a9190611e65565b610f7386610a31565b610f7c8661113d565b610f869190611e65565b109050610f9281610e51565b9150509392505050565b60608390509392505050565b60606000610fb58561146a565b90508015610fc65783915050610fcb565b829150505b949350505050565b60606000602067ffffffffffffffff811115610ff257610ff161159f565b5b6040519080825280601f01601f1916602001820160405280156110245781602001600182028036833780820191505090505b50905082602082015280915050919050565b6060600061104385610a31565b61104c8461113d565b6110558661113d565b61105f9190612047565b6110699190611e65565b905061107481610fd3565b9150509392505050565b606060008261108c90611f45565b19905061109981856112b8565b91505092915050565b606060006110af85610a31565b6110b88461113d565b6110c29190611e65565b6110cb86610a31565b6110d48661113d565b6110de9190611e65565b111590506110eb81610e51565b9150509392505050565b6060600061110285610a31565b61110b8461113d565b6111148661113d565b61111e9190611e65565b6111289190611e65565b905061113381610fd3565b9150509392505050565b6000602082511115611184576040517f08c379a000000000000000000000000000000000000000000000000000000000815260040161117b906120c7565b60405180910390fd5b6000825160206111949190612047565b67ffffffffffffffff8111156111ad576111ac61159f565b5b6040519080825280601f01601f1916602001820160405280156111df5781602001600182028036833780820191505090505b50836040516020016111f2929190612123565b604051602081830303815290604052806020019051810190611214919061215c565b905080915050919050565b6112b5816040516024016112339190611b36565b6040516020818303038152906040527f41304fac000000000000000000000000000000000000000000000000000000007bffffffffffffffffffffffffffffffffffffffffffffffffffffffff19166020820180517bffffffffffffffffffffffffffffffffffffffffffffffffffffffff83818316178352505050506114e7565b50565b6060826040516020016112cb91906121aa565b604051602081830303815290604052905092915050565b606060008203611329576040518060400160405280600181526020017f30000000000000000000000000000000000000000000000000000000000000008152509050611465565b600082905060005b6000821461135b578080611344906121c5565b915050600a826113549190611e96565b9150611331565b60008167ffffffffffffffff8111156113775761137661159f565b5b6040519080825280601f01601f1916602001820160405280156113a95781602001600182028036833780820191505090505b50905060008290505b6000861461145d576001816113c79190612047565b90506000600a80886113d99190611e96565b6113e39190611ec7565b876113ee9190612047565b60306113fa919061220d565b905060008160f81b90508084848151811061141857611417612018565b5b60200101907effffffffffffffffffffffffffffffffffffffffffffffffffffffffffffff1916908160001a905350600a886114549190611e96565b975050506113b2565b819450505050505b919050565b60006020825111156114b1576040517f08c379a00000000000000000000000000000000000000000000000000000000081526004016114a8906120c7565b60405180910390fd5b6000826000815181106114c7576114c6612018565b5b602001015160f81c60f81b60f81c905060008160ff161415915050919050565b6114fe816114f6611501611522565b63ffffffff16565b50565b60006a636f6e736f6c652e6c6f679050600080835160208501845afa505050565b61152d819050919050565b611535612242565b565b6000604051905090565b600080fd5b600080fd5b600060ff82169050919050565b6115618161154b565b811461156c57600080fd5b50565b60008135905061157e81611558565b92915050565b600080fd5b600080fd5b6000601f19601f8301169050919050565b7f4e487b7100000000000000000000000000000000000000000000000000000000600052604160045260246000fd5b6115d78261158e565b810181811067ffffffffffffffff821117156115f6576115f561159f565b5b80604052505050565b6000611609611537565b905061161582826115ce565b919050565b600067ffffffffffffffff8211156116355761163461159f565b5b61163e8261158e565b9050602081019050919050565b82818337600083830152505050565b600061166d6116688461161a565b6115ff565b90508281526020810184848401111561168957611688611589565b5b61169484828561164b565b509392505050565b600082601f8301126116b1576116b0611584565b5b81356116c184826020860161165a565b91505092915050565b6000806000606084860312156116e3576116e2611541565b5b60006116f18682870161156f565b935050602084013567ffffffffffffffff81111561171257611711611546565b5b61171e8682870161169c565b925050604084013567ffffffffffffffff81111561173f5761173e611546565b5b61174b8682870161169c565b9150509250925092565b600081519050919050565b600082825260208201905092915050565b60005b8381101561178f578082015181840152602081019050611774565b60008484015250505050565b60006117a682611755565b6117b08185611760565b93506117c0818560208601611771565b6117c98161158e565b840191505092915050565b600060208201905081810360008301526117ee818461179b565b905092915050565b60008160030b9050919050565b61180c816117f6565b811461181757600080fd5b50565b60008135905061182981611803565b92915050565b60006020828403121561184557611844611541565b5b60006118538482850161181a565b91505092915050565b60008060006060848603121561187557611874611541565b5b60006118838682870161156f565b935050602084013567ffffffffffffffff8111156118a4576118a3611546565b5b6118b08682870161169c565b92505060406118c18682870161181a565b9150509250925092565b600067ffffffffffffffff8211156118e6576118e561159f565b5b6118ef8261158e565b9050602081019050919050565b600061190f61190a846118cb565b6115ff565b90508281526020810184848401111561192b5761192a611589565b5b61193684828561164b565b509392505050565b600082601f83011261195357611952611584565b5b81356119638482602086016118fc565b91505092915050565b60006020828403121561198257611981611541565b5b600082013567ffffffffffffffff8111156119a05761199f611546565b5b6119ac8482850161193e565b91505092915050565b6000806000606084860312156119ce576119cd611541565b5b60006119dc8682870161156f565b935050602084013567ffffffffffffffff8111156119fd576119fc611546565b5b611a098682870161169c565b9250506040611a1a8682870161156f565b9150509250925092565b600060208284031215611a3a57611a39611541565b5b6000611a488482850161156f565b91505092915050565b6000819050919050565b611a6481611a51565b82525050565b6000602082019050611a7f6000830184611a5b565b92915050565b60008060408385031215611a9c57611a9b611541565b5b6000611aaa8582860161156f565b925050602083013567ffffffffffffffff811115611acb57611aca611546565b5b611ad78582860161169c565b9150509250929050565b600081519050919050565b600082825260208201905092915050565b6000611b0882611ae1565b611b128185611aec565b9350611b22818560208601611771565b611b2b8161158e565b840191505092915050565b60006020820190508181036000830152611b508184611afd565b905092915050565b600067ffffffffffffffff82169050919050565b611b7581611b58565b8114611b8057600080fd5b50565b600081359050611b9281611b6c565b92915050565b600080600060608486031215611bb157611bb0611541565b5b6000611bbf8682870161156f565b9350506020611bd086828701611b83565b9250506040611be18682870161181a565b9150509250925092565b60008115159050919050565b611c0081611beb565b8114611c0b57600080fd5b50565b600081359050611c1d81611bf7565b92915050565b600060208284031215611c3957611c38611541565b5b6000611c4784828501611c0e565b91505092915050565b600080600060608486031215611c6957611c68611541565b5b600084013567ffffffffffffffff811115611c8757611c86611546565b5b611c938682870161169c565b9350506020611ca48682870161156f565b9250506040611cb58682870161181a565b9150509250925092565b60008060008060808587031215611cd957611cd8611541565b5b6000611ce78782880161156f565b945050602085013567ffffffffffffffff811115611d0857611d07611546565b5b611d148782880161169c565b935050604085013567ffffffffffffffff811115611d3557611d34611546565b5b611d418782880161169c565b925050606085013567ffffffffffffffff811115611d6257611d61611546565b5b611d6e8782880161169c565b91505092959194509250565b611d8381611a51565b8114611d8e57600080fd5b50565b600081359050611da081611d7a565b92915050565b600060208284031215611dbc57611dbb611541565b5b6000611dca84828501611d91565b91505092915050565b7f4e487b7100000000000000000000000000000000000000000000000000000000600052601160045260246000fd5b6000611e0d82611a51565b9150611e1883611a51565b9250828201905080821115611e3057611e2f611dd3565b5b92915050565b7f4e487b7100000000000000000000000000000000000000000000000000000000600052601260045260246000fd5b6000611e7082611a51565b9150611e7b83611a51565b925082611e8b57611e8a611e36565b5b828206905092915050565b6000611ea182611a51565b9150611eac83611a51565b925082611ebc57611ebb611e36565b5b828204905092915050565b6000611ed282611a51565b9150611edd83611a51565b9250828202611eeb81611a51565b91508282048414831517611f0257611f01611dd3565b5b5092915050565b6000819050602082019050919050565b6000819050919050565b6000611f2f8251611f19565b80915050919050565b600082821b905092915050565b6000611f5082611755565b82611f5a84611f09565b9050611f6581611f23565b92506020821015611fa557611fa07fffffffffffffffffffffffffffffffffffffffffffffffffffffffffffffffff83602003600802611f38565b831692505b5050919050565b7f556e737570706f72746564207479706500000000000000000000000000000000600082015250565b6000611fe2601083611aec565b9150611fed82611fac565b602082019050919050565b6000602082019050818103600083015261201181611fd5565b9050919050565b7f4e487b7100000000000000000000000000000000000000000000000000000000600052603260045260246000fd5b600061205282611a51565b915061205d83611a51565b925082820390508181111561207557612074611dd3565b5b92915050565b7f4279746573206c656e67746820657863656564732033322e0000000000000000600082015250565b60006120b1601883611aec565b91506120bc8261207b565b602082019050919050565b600060208201905081810360008301526120e0816120a4565b9050919050565b600081905092915050565b60006120fd82611755565b61210781856120e7565b9350612117818560208601611771565b80840191505092915050565b600061212f82856120f2565b915061213b82846120f2565b91508190509392505050565b60008151905061215681611d7a565b92915050565b60006020828403121561217257612171611541565b5b600061218084828501612147565b91505092915050565b6000819050919050565b6121a461219f82611f19565b612189565b82525050565b60006121b68284612193565b60208201915081905092915050565b60006121d082611a51565b91507fffffffffffffffffffffffffffffffffffffffffffffffffffffffffffffffff820361220257612201611dd3565b5b600182019050919050565b60006122188261154b565b91506122238361154b565b9250828201905060ff81111561223c5761223b611dd3565b5b92915050565b7f4e487b7100000000000000000000000000000000000000000000000000000000600052605160045260246000fdfe28282d282d5f282d5f2d295f2d292d292920596f75277665207374657070656420696e746f207468652077726f6e67206e65696768626f72686f6f642070616c2ea2646970667358221220f9007790e938bfc35125cf647bd7919dd24dd46ef62d781abded66e1ffce81d664736f6c63430008140033","opcodes":"PUSH1 0x80 PUSH1 0x40 MSTORE CALLVALUE DUP1 ISZERO PUSH2 0x10 JUMPI PUSH1 0x0 DUP1 REVERT JUMPDEST POP PUSH2 0x22E8 DUP1 PUSH2 0x20 PUSH1 0x0 CODECOPY PUSH1 0x0 RETURN INVALID PUSH1 0x80 PUSH1 0x40 MSTORE CALLVALUE DUP1 ISZERO PUSH2 0x10 JUMPI PUSH1 0x0 DUP1 REVERT JUMPDEST POP PUSH1 0x4 CALLDATASIZE LT PUSH2 0x1EF JUMPI PUSH1 0x0 CALLDATALOAD PUSH1 0xE0 SHR DUP1 PUSH4 0x874B1C10 GT PUSH2 0x10F JUMPI DUP1 PUSH4 0xB9C7A54B GT PUSH2 0xA2 JUMPI DUP1 PUSH4 0xCC2CBEFF GT PUSH2 0x71 JUMPI DUP1 PUSH4 0xCC2CBEFF EQ PUSH2 0x720 JUMPI DUP1 PUSH4 0xD260D9AB EQ PUSH2 0x750 JUMPI DUP1 PUSH4 0xEB274B77 EQ PUSH2 0x780 JUMPI DUP1 PUSH4 0xEB376804 EQ PUSH2 0x7B0 JUMPI PUSH2 0x1EF JUMP JUMPDEST DUP1 PUSH4 0xB9C7A54B EQ PUSH2 0x660 JUMPI DUP1 PUSH4 0xBA19AC28 EQ PUSH2 0x690 JUMPI DUP1 PUSH4 0xC2D96952 EQ PUSH2 0x6C0 JUMPI DUP1 PUSH4 0xC7559DA4 EQ PUSH2 0x6F0 JUMPI PUSH2 0x1EF JUMP JUMPDEST DUP1 PUSH4 0xAA626E8A GT PUSH2 0xDE JUMPI DUP1 PUSH4 0xAA626E8A EQ PUSH2 0x5A0 JUMPI DUP1 PUSH4 0xAE104CFD EQ PUSH2 0x5D0 JUMPI DUP1 PUSH4 0xAE42450A EQ PUSH2 0x600 JUMPI DUP1 PUSH4 0xB8FA1043 EQ PUSH2 0x630 JUMPI PUSH2 0x1EF JUMP JUMPDEST DUP1 PUSH4 0x874B1C10 EQ PUSH2 0x4E0 JUMPI DUP1 PUSH4 0x92348B34 EQ PUSH2 0x510 JUMPI DUP1 PUSH4 0x9944D12D EQ PUSH2 0x540 JUMPI DUP1 PUSH4 0xA1848FF3 EQ PUSH2 0x570 JUMPI PUSH2 0x1EF JUMP JUMPDEST DUP1 PUSH4 0x4A5A1117 GT PUSH2 0x187 JUMPI DUP1 PUSH4 0x650DE1CF GT PUSH2 0x156 JUMPI DUP1 PUSH4 0x650DE1CF EQ PUSH2 0x420 JUMPI DUP1 PUSH4 0x72D456F5 EQ PUSH2 0x450 JUMPI DUP1 PUSH4 0x73CC0154 EQ PUSH2 0x480 JUMPI DUP1 PUSH4 0x7D23F1DB EQ PUSH2 0x4B0 JUMPI PUSH2 0x1EF JUMP JUMPDEST DUP1 PUSH4 0x4A5A1117 EQ PUSH2 0x360 JUMPI DUP1 PUSH4 0x5211C679 EQ PUSH2 0x390 JUMPI DUP1 PUSH4 0x55E5E6C5 EQ PUSH2 0x3C0 JUMPI DUP1 PUSH4 0x5E639F19 EQ PUSH2 0x3F0 JUMPI PUSH2 0x1EF JUMP JUMPDEST DUP1 PUSH4 0x1F4CDA2F GT PUSH2 0x1C3 JUMPI DUP1 PUSH4 0x1F4CDA2F EQ PUSH2 0x2B4 JUMPI DUP1 PUSH4 0x21B50BA3 EQ PUSH2 0x2E4 JUMPI DUP1 PUSH4 0x41304FAC EQ PUSH2 0x314 JUMPI DUP1 PUSH4 0x4284F765 EQ PUSH2 0x330 JUMPI PUSH2 0x1EF JUMP JUMPDEST DUP1 PUSH3 0x2DF619 EQ PUSH2 0x1F4 JUMPI DUP1 PUSH4 0xB80518E EQ PUSH2 0x224 JUMPI DUP1 PUSH4 0x13C0C9AE EQ PUSH2 0x254 JUMPI DUP1 PUSH4 0x1B1B484E EQ PUSH2 0x284 JUMPI JUMPDEST PUSH1 0x0 DUP1 REVERT JUMPDEST PUSH2 0x20E PUSH1 0x4 DUP1 CALLDATASIZE SUB DUP2 ADD SWAP1 PUSH2 0x209 SWAP2 SWAP1 PUSH2 0x16CA JUMP JUMPDEST PUSH2 0x7E0 JUMP JUMPDEST PUSH1 0x40 MLOAD PUSH2 0x21B SWAP2 SWAP1 PUSH2 0x17D4 JUMP JUMPDEST PUSH1 0x40 MLOAD DUP1 SWAP2 SUB SWAP1 RETURN JUMPDEST PUSH2 0x23E PUSH1 0x4 DUP1 CALLDATASIZE SUB DUP2 ADD SWAP1 PUSH2 0x239 SWAP2 SWAP1 PUSH2 0x16CA JUMP JUMPDEST PUSH2 0x828 JUMP JUMPDEST PUSH1 0x40 MLOAD PUSH2 0x24B SWAP2 SWAP1 PUSH2 0x17D4 JUMP JUMPDEST PUSH1 0x40 MLOAD DUP1 SWAP2 SUB SWAP1 RETURN JUMPDEST PUSH2 0x26E PUSH1 0x4 DUP1 CALLDATASIZE SUB DUP2 ADD SWAP1 PUSH2 0x269 SWAP2 SWAP1 PUSH2 0x16CA JUMP JUMPDEST PUSH2 0x889 JUMP JUMPDEST PUSH1 0x40 MLOAD PUSH2 0x27B SWAP2 SWAP1 PUSH2 0x17D4 JUMP JUMPDEST PUSH1 0x40 MLOAD DUP1 SWAP2 SUB SWAP1 RETURN JUMPDEST PUSH2 0x29E PUSH1 0x4 DUP1 CALLDATASIZE SUB DUP2 ADD SWAP1 PUSH2 0x299 SWAP2 SWAP1 PUSH2 0x182F JUMP JUMPDEST PUSH2 0x8DC JUMP JUMPDEST PUSH1 0x40 MLOAD PUSH2 0x2AB SWAP2 SWAP1 PUSH2 0x17D4 JUMP JUMPDEST PUSH1 0x40 MLOAD DUP1 SWAP2 SUB SWAP1 RETURN JUMPDEST PUSH2 0x2CE PUSH1 0x4 DUP1 CALLDATASIZE SUB DUP2 ADD SWAP1 PUSH2 0x2C9 SWAP2 SWAP1 PUSH2 0x16CA JUMP JUMPDEST PUSH2 0x904 JUMP JUMPDEST PUSH1 0x40 MLOAD PUSH2 0x2DB SWAP2 SWAP1 PUSH2 0x17D4 JUMP JUMPDEST PUSH1 0x40 MLOAD DUP1 SWAP2 SUB SWAP1 RETURN JUMPDEST PUSH2 0x2FE PUSH1 0x4 DUP1 CALLDATASIZE SUB DUP2 ADD SWAP1 PUSH2 0x2F9 SWAP2 SWAP1 PUSH2 0x185C JUMP JUMPDEST PUSH2 0x94C JUMP JUMPDEST PUSH1 0x40 MLOAD PUSH2 0x30B SWAP2 SWAP1 PUSH2 0x17D4 JUMP JUMPDEST PUSH1 0x40 MLOAD DUP1 SWAP2 SUB SWAP1 RETURN JUMPDEST PUSH2 0x32E PUSH1 0x4 DUP1 CALLDATASIZE SUB DUP2 ADD SWAP1 PUSH2 0x329 SWAP2 SWAP1 PUSH2 0x196C JUMP JUMPDEST PUSH2 0x958 JUMP JUMPDEST STOP JUMPDEST PUSH2 0x34A PUSH1 0x4 DUP1 CALLDATASIZE SUB DUP2 ADD SWAP1 PUSH2 0x345 SWAP2 SWAP1 PUSH2 0x16CA JUMP JUMPDEST PUSH2 0x964 JUMP JUMPDEST PUSH1 0x40 MLOAD PUSH2 0x357 SWAP2 SWAP1 PUSH2 0x17D4 JUMP JUMPDEST PUSH1 0x40 MLOAD DUP1 SWAP2 SUB SWAP1 RETURN JUMPDEST PUSH2 0x37A PUSH1 0x4 DUP1 CALLDATASIZE SUB DUP2 ADD SWAP1 PUSH2 0x375 SWAP2 SWAP1 PUSH2 0x19B5 JUMP JUMPDEST PUSH2 0x9AC JUMP JUMPDEST PUSH1 0x40 MLOAD PUSH2 0x387 SWAP2 SWAP1 PUSH2 0x17D4 JUMP JUMPDEST PUSH1 0x40 MLOAD DUP1 SWAP2 SUB SWAP1 RETURN JUMPDEST PUSH2 0x3AA PUSH1 0x4 DUP1 CALLDATASIZE SUB DUP2 ADD SWAP1 PUSH2 0x3A5 SWAP2 SWAP1 PUSH2 0x16CA JUMP JUMPDEST PUSH2 0x9D0 JUMP JUMPDEST PUSH1 0x40 MLOAD PUSH2 0x3B7 SWAP2 SWAP1 PUSH2 0x17D4 JUMP JUMPDEST PUSH1 0x40 MLOAD DUP1 SWAP2 SUB SWAP1 RETURN JUMPDEST PUSH2 0x3DA PUSH1 0x4 DUP1 CALLDATASIZE SUB DUP2 ADD SWAP1 PUSH2 0x3D5 SWAP2 SWAP1 PUSH2 0x1A24 JUMP JUMPDEST PUSH2 0xA31 JUMP JUMPDEST PUSH1 0x40 MLOAD PUSH2 0x3E7 SWAP2 SWAP1 PUSH2 0x1A6A JUMP JUMPDEST PUSH1 0x40 MLOAD DUP1 SWAP2 SUB SWAP1 RETURN JUMPDEST PUSH2 0x40A PUSH1 0x4 DUP1 CALLDATASIZE SUB DUP2 ADD SWAP1 PUSH2 0x405 SWAP2 SWAP1 PUSH2 0x16CA JUMP JUMPDEST PUSH2 0xBFA JUMP JUMPDEST PUSH1 0x40 MLOAD PUSH2 0x417 SWAP2 SWAP1 PUSH2 0x17D4 JUMP JUMPDEST PUSH1 0x40 MLOAD DUP1 SWAP2 SUB SWAP1 RETURN JUMPDEST PUSH2 0x43A PUSH1 0x4 DUP1 CALLDATASIZE SUB DUP2 ADD SWAP1 PUSH2 0x435 SWAP2 SWAP1 PUSH2 0x16CA JUMP JUMPDEST PUSH2 0xC29 JUMP JUMPDEST PUSH1 0x40 MLOAD PUSH2 0x447 SWAP2 SWAP1 PUSH2 0x17D4 JUMP JUMPDEST PUSH1 0x40 MLOAD DUP1 SWAP2 SUB SWAP1 RETURN JUMPDEST PUSH2 0x46A PUSH1 0x4 DUP1 CALLDATASIZE SUB DUP2 ADD SWAP1 PUSH2 0x465 SWAP2 SWAP1 PUSH2 0x16CA JUMP JUMPDEST PUSH2 0xC7C JUMP JUMPDEST PUSH1 0x40 MLOAD PUSH2 0x477 SWAP2 SWAP1 PUSH2 0x17D4 JUMP JUMPDEST PUSH1 0x40 MLOAD DUP1 SWAP2 SUB SWAP1 RETURN JUMPDEST PUSH2 0x49A PUSH1 0x4 DUP1 CALLDATASIZE SUB DUP2 ADD SWAP1 PUSH2 0x495 SWAP2 SWAP1 PUSH2 0x1A85 JUMP JUMPDEST PUSH2 0xCAB JUMP JUMPDEST PUSH1 0x40 MLOAD PUSH2 0x4A7 SWAP2 SWAP1 PUSH2 0x1A6A JUMP JUMPDEST PUSH1 0x40 MLOAD DUP1 SWAP2 SUB SWAP1 RETURN JUMPDEST PUSH2 0x4CA PUSH1 0x4 DUP1 CALLDATASIZE SUB DUP2 ADD SWAP1 PUSH2 0x4C5 SWAP2 SWAP1 PUSH2 0x1A85 JUMP JUMPDEST PUSH2 0xCC3 JUMP JUMPDEST PUSH1 0x40 MLOAD PUSH2 0x4D7 SWAP2 SWAP1 PUSH2 0x17D4 JUMP JUMPDEST PUSH1 0x40 MLOAD DUP1 SWAP2 SUB SWAP1 RETURN JUMPDEST PUSH2 0x4FA PUSH1 0x4 DUP1 CALLDATASIZE SUB DUP2 ADD SWAP1 PUSH2 0x4F5 SWAP2 SWAP1 PUSH2 0x16CA JUMP JUMPDEST PUSH2 0xCCE JUMP JUMPDEST PUSH1 0x40 MLOAD PUSH2 0x507 SWAP2 SWAP1 PUSH2 0x17D4 JUMP JUMPDEST PUSH1 0x40 MLOAD DUP1 SWAP2 SUB SWAP1 RETURN JUMPDEST PUSH2 0x52A PUSH1 0x4 DUP1 CALLDATASIZE SUB DUP2 ADD SWAP1 PUSH2 0x525 SWAP2 SWAP1 PUSH2 0x16CA JUMP JUMPDEST PUSH2 0xD20 JUMP JUMPDEST PUSH1 0x40 MLOAD PUSH2 0x537 SWAP2 SWAP1 PUSH2 0x17D4 JUMP JUMPDEST PUSH1 0x40 MLOAD DUP1 SWAP2 SUB SWAP1 RETURN JUMPDEST PUSH2 0x55A PUSH1 0x4 DUP1 CALLDATASIZE SUB DUP2 ADD SWAP1 PUSH2 0x555 SWAP2 SWAP1 PUSH2 0x16CA JUMP JUMPDEST PUSH2 0xD72 JUMP JUMPDEST PUSH1 0x40 MLOAD PUSH2 0x567 SWAP2 SWAP1 PUSH2 0x17D4 JUMP JUMPDEST PUSH1 0x40 MLOAD DUP1 SWAP2 SUB SWAP1 RETURN JUMPDEST PUSH2 0x58A PUSH1 0x4 DUP1 CALLDATASIZE SUB DUP2 ADD SWAP1 PUSH2 0x585 SWAP2 SWAP1 PUSH2 0x16CA JUMP JUMPDEST PUSH2 0xDAB JUMP JUMPDEST PUSH1 0x40 MLOAD PUSH2 0x597 SWAP2 SWAP1 PUSH2 0x1B36 JUMP JUMPDEST PUSH1 0x40 MLOAD DUP1 SWAP2 SUB SWAP1 RETURN JUMPDEST PUSH2 0x5BA PUSH1 0x4 DUP1 CALLDATASIZE SUB DUP2 ADD SWAP1 PUSH2 0x5B5 SWAP2 SWAP1 PUSH2 0x1B98 JUMP JUMPDEST PUSH2 0xDCD JUMP JUMPDEST PUSH1 0x40 MLOAD PUSH2 0x5C7 SWAP2 SWAP1 PUSH2 0x17D4 JUMP JUMPDEST PUSH1 0x40 MLOAD DUP1 SWAP2 SUB SWAP1 RETURN JUMPDEST PUSH2 0x5EA PUSH1 0x4 DUP1 CALLDATASIZE SUB DUP2 ADD SWAP1 PUSH2 0x5E5 SWAP2 SWAP1 PUSH2 0x16CA JUMP JUMPDEST PUSH2 0xDE9 JUMP JUMPDEST PUSH1 0x40 MLOAD PUSH2 0x5F7 SWAP2 SWAP1 PUSH2 0x17D4 JUMP JUMPDEST PUSH1 0x40 MLOAD DUP1 SWAP2 SUB SWAP1 RETURN JUMPDEST PUSH2 0x61A PUSH1 0x4 DUP1 CALLDATASIZE SUB DUP2 ADD SWAP1 PUSH2 0x615 SWAP2 SWAP1 PUSH2 0x16CA JUMP JUMPDEST PUSH2 0xE18 JUMP JUMPDEST PUSH1 0x40 MLOAD PUSH2 0x627 SWAP2 SWAP1 PUSH2 0x17D4 JUMP JUMPDEST PUSH1 0x40 MLOAD DUP1 SWAP2 SUB SWAP1 RETURN JUMPDEST PUSH2 0x64A PUSH1 0x4 DUP1 CALLDATASIZE SUB DUP2 ADD SWAP1 PUSH2 0x645 SWAP2 SWAP1 PUSH2 0x1C23 JUMP JUMPDEST PUSH2 0xE51 JUMP JUMPDEST PUSH1 0x40 MLOAD PUSH2 0x657 SWAP2 SWAP1 PUSH2 0x17D4 JUMP JUMPDEST PUSH1 0x40 MLOAD DUP1 SWAP2 SUB SWAP1 RETURN JUMPDEST PUSH2 0x67A PUSH1 0x4 DUP1 CALLDATASIZE SUB DUP2 ADD SWAP1 PUSH2 0x675 SWAP2 SWAP1 PUSH2 0x16CA JUMP JUMPDEST PUSH2 0xF4A JUMP JUMPDEST PUSH1 0x40 MLOAD PUSH2 0x687 SWAP2 SWAP1 PUSH2 0x17D4 JUMP JUMPDEST PUSH1 0x40 MLOAD DUP1 SWAP2 SUB SWAP1 RETURN JUMPDEST PUSH2 0x6AA PUSH1 0x4 DUP1 CALLDATASIZE SUB DUP2 ADD SWAP1 PUSH2 0x6A5 SWAP2 SWAP1 PUSH2 0x1C50 JUMP JUMPDEST PUSH2 0xF9C JUMP JUMPDEST PUSH1 0x40 MLOAD PUSH2 0x6B7 SWAP2 SWAP1 PUSH2 0x17D4 JUMP JUMPDEST PUSH1 0x40 MLOAD DUP1 SWAP2 SUB SWAP1 RETURN JUMPDEST PUSH2 0x6DA PUSH1 0x4 DUP1 CALLDATASIZE SUB DUP2 ADD SWAP1 PUSH2 0x6D5 SWAP2 SWAP1 PUSH2 0x1CBF JUMP JUMPDEST PUSH2 0xFA8 JUMP JUMPDEST PUSH1 0x40 MLOAD PUSH2 0x6E7 SWAP2 SWAP1 PUSH2 0x17D4 JUMP JUMPDEST PUSH1 0x40 MLOAD DUP1 SWAP2 SUB SWAP1 RETURN JUMPDEST PUSH2 0x70A PUSH1 0x4 DUP1 CALLDATASIZE SUB DUP2 ADD SWAP1 PUSH2 0x705 SWAP2 SWAP1 PUSH2 0x1DA6 JUMP JUMPDEST PUSH2 0xFD3 JUMP JUMPDEST PUSH1 0x40 MLOAD PUSH2 0x717 SWAP2 SWAP1 PUSH2 0x17D4 JUMP JUMPDEST PUSH1 0x40 MLOAD DUP1 SWAP2 SUB SWAP1 RETURN JUMPDEST PUSH2 0x73A PUSH1 0x4 DUP1 CALLDATASIZE SUB DUP2 ADD SWAP1 PUSH2 0x735 SWAP2 SWAP1 PUSH2 0x16CA JUMP JUMPDEST PUSH2 0x1036 JUMP JUMPDEST PUSH1 0x40 MLOAD PUSH2 0x747 SWAP2 SWAP1 PUSH2 0x17D4 JUMP JUMPDEST PUSH1 0x40 MLOAD DUP1 SWAP2 SUB SWAP1 RETURN JUMPDEST PUSH2 0x76A PUSH1 0x4 DUP1 CALLDATASIZE SUB DUP2 ADD SWAP1 PUSH2 0x765 SWAP2 SWAP1 PUSH2 0x1A85 JUMP JUMPDEST PUSH2 0x107E JUMP JUMPDEST PUSH1 0x40 MLOAD PUSH2 0x777 SWAP2 SWAP1 PUSH2 0x17D4 JUMP JUMPDEST PUSH1 0x40 MLOAD DUP1 SWAP2 SUB SWAP1 RETURN JUMPDEST PUSH2 0x79A PUSH1 0x4 DUP1 CALLDATASIZE SUB DUP2 ADD SWAP1 PUSH2 0x795 SWAP2 SWAP1 PUSH2 0x16CA JUMP JUMPDEST PUSH2 0x10A2 JUMP JUMPDEST PUSH1 0x40 MLOAD PUSH2 0x7A7 SWAP2 SWAP1 PUSH2 0x17D4 JUMP JUMPDEST PUSH1 0x40 MLOAD DUP1 SWAP2 SUB SWAP1 RETURN JUMPDEST PUSH2 0x7CA PUSH1 0x4 DUP1 CALLDATASIZE SUB DUP2 ADD SWAP1 PUSH2 0x7C5 SWAP2 SWAP1 PUSH2 0x16CA JUMP JUMPDEST PUSH2 0x10F5 JUMP JUMPDEST PUSH1 0x40 MLOAD PUSH2 0x7D7 SWAP2 SWAP1 PUSH2 0x17D4 JUMP JUMPDEST PUSH1 0x40 MLOAD DUP1 SWAP2 SUB SWAP1 RETURN JUMPDEST PUSH1 0x60 PUSH1 0x0 PUSH2 0x7ED DUP6 PUSH2 0xA31 JUMP JUMPDEST PUSH2 0x7F6 DUP5 PUSH2 0x113D JUMP JUMPDEST PUSH2 0x7FF DUP7 PUSH2 0x113D JUMP JUMPDEST PUSH2 0x809 SWAP2 SWAP1 PUSH2 0x1E02 JUMP JUMPDEST PUSH2 0x813 SWAP2 SWAP1 PUSH2 0x1E65 JUMP JUMPDEST SWAP1 POP PUSH2 0x81E DUP2 PUSH2 0xFD3 JUMP JUMPDEST SWAP2 POP POP SWAP4 SWAP3 POP POP POP JUMP JUMPDEST PUSH1 0x60 PUSH1 0x0 PUSH2 0x835 DUP6 PUSH2 0xA31 JUMP JUMPDEST PUSH2 0x83E DUP5 PUSH2 0x113D JUMP JUMPDEST PUSH2 0x848 SWAP2 SWAP1 PUSH2 0x1E65 JUMP JUMPDEST PUSH2 0x851 DUP7 PUSH2 0xA31 JUMP JUMPDEST PUSH2 0x85A DUP7 PUSH2 0x113D JUMP JUMPDEST PUSH2 0x864 SWAP2 SWAP1 PUSH2 0x1E65 JUMP JUMPDEST LT ISZERO SWAP1 POP PUSH1 0x1 ISZERO ISZERO DUP2 ISZERO ISZERO SUB PUSH2 0x87D JUMPI DUP4 SWAP2 POP POP PUSH2 0x882 JUMP JUMPDEST DUP3 SWAP2 POP POP JUMPDEST SWAP4 SWAP3 POP POP POP JUMP JUMPDEST PUSH1 0x60 PUSH1 0x0 PUSH2 0x896 DUP6 PUSH2 0xA31 JUMP JUMPDEST PUSH2 0x89F DUP5 PUSH2 0x113D JUMP JUMPDEST PUSH2 0x8A9 SWAP2 SWAP1 PUSH2 0x1E65 JUMP JUMPDEST PUSH2 0x8B2 DUP7 PUSH2 0xA31 JUMP JUMPDEST PUSH2 0x8BB DUP7 PUSH2 0x113D JUMP JUMPDEST PUSH2 0x8C5 SWAP2 SWAP1 PUSH2 0x1E65 JUMP JUMPDEST EQ ISZERO SWAP1 POP PUSH2 0x8D2 DUP2 PUSH2 0xE51 JUMP JUMPDEST SWAP2 POP POP SWAP4 SWAP3 POP POP POP JUMP JUMPDEST PUSH1 0x60 PUSH1 0x0 PUSH1 0x40 MLOAD DUP1 PUSH1 0x80 ADD PUSH1 0x40 MSTORE DUP1 PUSH1 0x41 DUP2 MSTORE PUSH1 0x20 ADD PUSH2 0x2272 PUSH1 0x41 SWAP2 CODECOPY SWAP1 POP DUP1 SWAP2 POP POP SWAP2 SWAP1 POP JUMP JUMPDEST PUSH1 0x60 PUSH1 0x0 PUSH2 0x911 DUP6 PUSH2 0xA31 JUMP JUMPDEST PUSH2 0x91A DUP5 PUSH2 0x113D JUMP JUMPDEST PUSH2 0x923 DUP7 PUSH2 0x113D JUMP JUMPDEST PUSH2 0x92D SWAP2 SWAP1 PUSH2 0x1E96 JUMP JUMPDEST PUSH2 0x937 SWAP2 SWAP1 PUSH2 0x1E65 JUMP JUMPDEST SWAP1 POP PUSH2 0x942 DUP2 PUSH2 0xFD3 JUMP JUMPDEST SWAP2 POP POP SWAP4 SWAP3 POP POP POP JUMP JUMPDEST PUSH1 0x60 DUP3 SWAP1 POP SWAP4 SWAP3 POP POP POP JUMP JUMPDEST PUSH2 0x961 DUP2 PUSH2 0x121F JUMP JUMPDEST POP JUMP JUMPDEST PUSH1 0x60 PUSH1 0x0 PUSH2 0x971 DUP6 PUSH2 0xA31 JUMP JUMPDEST PUSH2 0x97A DUP5 PUSH2 0x113D JUMP JUMPDEST PUSH2 0x983 DUP7 PUSH2 0x113D JUMP JUMPDEST PUSH2 0x98D SWAP2 SWAP1 PUSH2 0x1EC7 JUMP JUMPDEST PUSH2 0x997 SWAP2 SWAP1 PUSH2 0x1E65 JUMP JUMPDEST SWAP1 POP PUSH2 0x9A2 DUP2 PUSH2 0xFD3 JUMP JUMPDEST SWAP2 POP POP SWAP4 SWAP3 POP POP POP JUMP JUMPDEST PUSH1 0x60 PUSH1 0x0 DUP4 PUSH2 0x9BA SWAP1 PUSH2 0x1F45 JUMP JUMPDEST SWAP1 POP PUSH2 0x9C6 DUP2 DUP5 PUSH2 0x12B8 JUMP JUMPDEST SWAP2 POP POP SWAP4 SWAP3 POP POP POP JUMP JUMPDEST PUSH1 0x60 PUSH1 0x0 PUSH2 0x9DD DUP6 PUSH2 0xA31 JUMP JUMPDEST PUSH2 0x9E6 DUP5 PUSH2 0x113D JUMP JUMPDEST PUSH2 0x9F0 SWAP2 SWAP1 PUSH2 0x1E65 JUMP JUMPDEST PUSH2 0x9F9 DUP7 PUSH2 0xA31 JUMP JUMPDEST PUSH2 0xA02 DUP7 PUSH2 0x113D JUMP JUMPDEST PUSH2 0xA0C SWAP2 SWAP1 PUSH2 0x1E65 JUMP JUMPDEST LT ISZERO SWAP1 POP PUSH1 0x1 ISZERO ISZERO DUP2 ISZERO ISZERO SUB PUSH2 0xA25 JUMPI DUP3 SWAP2 POP POP PUSH2 0xA2A JUMP JUMPDEST DUP4 SWAP2 POP POP JUMPDEST SWAP4 SWAP3 POP POP POP JUMP JUMPDEST PUSH1 0x0 DUP1 PUSH1 0x0 SWAP1 POP PUSH1 0x0 DUP4 PUSH1 0xFF AND SUB PUSH2 0xA5A JUMPI PUSH1 0x1 PUSH1 0xFF DUP1 AND PUSH2 0xA53 SWAP2 SWAP1 PUSH2 0x1E02 JUMP JUMPDEST SWAP1 POP PUSH2 0xBF1 JUMP JUMPDEST PUSH1 0x1 DUP4 PUSH1 0xFF AND SUB PUSH2 0xA7D JUMPI PUSH1 0x1 PUSH2 0xFFFF DUP1 AND PUSH2 0xA76 SWAP2 SWAP1 PUSH2 0x1E02 JUMP JUMPDEST SWAP1 POP PUSH2 0xBF0 JUMP JUMPDEST PUSH1 0x2 DUP4 PUSH1 0xFF AND SUB PUSH2 0xAA2 JUMPI PUSH1 0x1 PUSH4 0xFFFFFFFF DUP1 AND PUSH2 0xA9B SWAP2 SWAP1 PUSH2 0x1E02 JUMP JUMPDEST SWAP1 POP PUSH2 0xBEF JUMP JUMPDEST PUSH1 0x3 DUP4 PUSH1 0xFF AND SUB PUSH2 0xACB JUMPI PUSH1 0x1 PUSH8 0xFFFFFFFFFFFFFFFF DUP1 AND PUSH2 0xAC4 SWAP2 SWAP1 PUSH2 0x1E02 JUMP JUMPDEST SWAP1 POP PUSH2 0xBEE JUMP JUMPDEST PUSH1 0x4 DUP4 PUSH1 0xFF AND SUB PUSH2 0xAFC JUMPI PUSH1 0x1 PUSH16 0xFFFFFFFFFFFFFFFFFFFFFFFFFFFFFFFF DUP1 AND PUSH2 0xAF5 SWAP2 SWAP1 PUSH2 0x1E02 JUMP JUMPDEST SWAP1 POP PUSH2 0xBED JUMP JUMPDEST PUSH1 0x5 DUP4 PUSH1 0xFF AND SUB PUSH2 0xB10 JUMPI PUSH1 0x1 SWAP1 POP PUSH2 0xBEC JUMP JUMPDEST PUSH1 0x5 DUP4 PUSH1 0xFF AND GT DUP1 ISZERO PUSH2 0xB26 JUMPI POP PUSH1 0xC DUP4 PUSH1 0xFF AND LT JUMPDEST ISZERO PUSH2 0xB66 JUMPI PUSH1 0x40 MLOAD PUSH32 0x8C379A000000000000000000000000000000000000000000000000000000000 DUP2 MSTORE PUSH1 0x4 ADD PUSH2 0xB5D SWAP1 PUSH2 0x1FF8 JUMP JUMPDEST PUSH1 0x40 MLOAD DUP1 SWAP2 SUB SWAP1 REVERT JUMPDEST PUSH1 0xC DUP4 PUSH1 0xFF AND SUB PUSH2 0xB9B JUMPI PUSH1 0x1 PUSH20 0xFFFFFFFFFFFFFFFFFFFFFFFFFFFFFFFFFFFFFFFF DUP1 AND PUSH2 0xB94 SWAP2 SWAP1 PUSH2 0x1E02 JUMP JUMPDEST SWAP1 POP PUSH2 0xBEB JUMP JUMPDEST PUSH1 0xD DUP4 PUSH1 0xFF AND SUB PUSH2 0xBAF JUMPI PUSH1 0x1 SWAP1 POP PUSH2 0xBEA JUMP JUMPDEST PUSH1 0x40 MLOAD PUSH32 0x8C379A000000000000000000000000000000000000000000000000000000000 DUP2 MSTORE PUSH1 0x4 ADD PUSH2 0xBE1 SWAP1 PUSH2 0x1FF8 JUMP JUMPDEST PUSH1 0x40 MLOAD DUP1 SWAP2 SUB SWAP1 REVERT JUMPDEST JUMPDEST JUMPDEST JUMPDEST JUMPDEST JUMPDEST JUMPDEST JUMPDEST DUP1 SWAP2 POP POP SWAP2 SWAP1 POP JUMP JUMPDEST PUSH1 0x60 PUSH1 0x0 DUP3 PUSH2 0xC08 SWAP1 PUSH2 0x1F45 JUMP JUMPDEST DUP5 PUSH2 0xC12 SWAP1 PUSH2 0x1F45 JUMP JUMPDEST XOR SWAP1 POP PUSH2 0xC1F DUP2 DUP7 PUSH2 0x12B8 JUMP JUMPDEST SWAP2 POP POP SWAP4 SWAP3 POP POP POP JUMP JUMPDEST PUSH1 0x60 PUSH1 0x0 PUSH2 0xC36 DUP6 PUSH2 0xA31 JUMP JUMPDEST PUSH2 0xC3F DUP5 PUSH2 0x113D JUMP JUMPDEST PUSH2 0xC49 SWAP2 SWAP1 PUSH2 0x1E65 JUMP JUMPDEST PUSH2 0xC52 DUP7 PUSH2 0xA31 JUMP JUMPDEST PUSH2 0xC5B DUP7 PUSH2 0x113D JUMP JUMPDEST PUSH2 0xC65 SWAP2 SWAP1 PUSH2 0x1E65 JUMP JUMPDEST LT ISZERO SWAP1 POP PUSH2 0xC72 DUP2 PUSH2 0xE51 JUMP JUMPDEST SWAP2 POP POP SWAP4 SWAP3 POP POP POP JUMP JUMPDEST PUSH1 0x60 PUSH1 0x0 DUP3 PUSH2 0xC8A SWAP1 PUSH2 0x1F45 JUMP JUMPDEST DUP5 PUSH2 0xC94 SWAP1 PUSH2 0x1F45 JUMP JUMPDEST OR SWAP1 POP PUSH2 0xCA1 DUP2 DUP7 PUSH2 0x12B8 JUMP JUMPDEST SWAP2 POP POP SWAP4 SWAP3 POP POP POP JUMP JUMPDEST PUSH1 0x0 DUP1 PUSH2 0xCB7 DUP4 PUSH2 0x113D JUMP JUMPDEST SWAP1 POP DUP1 SWAP2 POP POP SWAP3 SWAP2 POP POP JUMP JUMPDEST PUSH1 0x60 DUP2 SWAP1 POP SWAP3 SWAP2 POP POP JUMP JUMPDEST PUSH1 0x60 PUSH1 0x0 PUSH2 0xCDB DUP6 PUSH2 0xA31 JUMP JUMPDEST PUSH2 0xCE4 DUP5 PUSH2 0x113D JUMP JUMPDEST PUSH2 0xCEE SWAP2 SWAP1 PUSH2 0x1E65 JUMP JUMPDEST PUSH2 0xCF7 DUP7 PUSH2 0xA31 JUMP JUMPDEST PUSH2 0xD00 DUP7 PUSH2 0x113D JUMP JUMPDEST PUSH2 0xD0A SWAP2 SWAP1 PUSH2 0x1E65 JUMP JUMPDEST GT SWAP1 POP PUSH2 0xD16 DUP2 PUSH2 0xE51 JUMP JUMPDEST SWAP2 POP POP SWAP4 SWAP3 POP POP POP JUMP JUMPDEST PUSH1 0x60 PUSH1 0x0 PUSH2 0xD2D DUP6 PUSH2 0xA31 JUMP JUMPDEST PUSH2 0xD36 DUP5 PUSH2 0x113D JUMP JUMPDEST PUSH2 0xD40 SWAP2 SWAP1 PUSH2 0x1E65 JUMP JUMPDEST PUSH2 0xD49 DUP7 PUSH2 0xA31 JUMP JUMPDEST PUSH2 0xD52 DUP7 PUSH2 0x113D JUMP JUMPDEST PUSH2 0xD5C SWAP2 SWAP1 PUSH2 0x1E65 JUMP JUMPDEST EQ SWAP1 POP PUSH2 0xD68 DUP2 PUSH2 0xE51 JUMP JUMPDEST SWAP2 POP POP SWAP4 SWAP3 POP POP POP JUMP JUMPDEST PUSH1 0x60 PUSH1 0x0 PUSH2 0xD7F DUP5 PUSH2 0x113D JUMP JUMPDEST SWAP1 POP PUSH1 0x0 PUSH2 0xD8C DUP5 PUSH2 0x113D JUMP JUMPDEST SWAP1 POP PUSH1 0x0 DUP2 DUP4 SWAP1 SHR SWAP1 POP PUSH2 0xD9F DUP2 PUSH2 0xFD3 JUMP JUMPDEST SWAP4 POP POP POP POP SWAP4 SWAP3 POP POP POP JUMP JUMPDEST PUSH1 0x60 PUSH1 0x0 PUSH2 0xDC0 PUSH2 0xDBB DUP6 PUSH2 0x113D JUMP JUMPDEST PUSH2 0x12E2 JUMP JUMPDEST SWAP1 POP DUP1 SWAP2 POP POP SWAP4 SWAP3 POP POP POP JUMP JUMPDEST PUSH1 0x60 PUSH2 0xDE0 PUSH2 0xDDB DUP6 PUSH2 0xA31 JUMP JUMPDEST PUSH2 0xFD3 JUMP JUMPDEST SWAP1 POP SWAP4 SWAP3 POP POP POP JUMP JUMPDEST PUSH1 0x60 PUSH1 0x0 DUP3 PUSH2 0xDF7 SWAP1 PUSH2 0x1F45 JUMP JUMPDEST DUP5 PUSH2 0xE01 SWAP1 PUSH2 0x1F45 JUMP JUMPDEST AND SWAP1 POP PUSH2 0xE0E DUP2 DUP7 PUSH2 0x12B8 JUMP JUMPDEST SWAP2 POP POP SWAP4 SWAP3 POP POP POP JUMP JUMPDEST PUSH1 0x60 PUSH1 0x0 PUSH2 0xE25 DUP5 PUSH2 0x113D JUMP JUMPDEST SWAP1 POP PUSH1 0x0 PUSH2 0xE32 DUP5 PUSH2 0x113D JUMP JUMPDEST SWAP1 POP PUSH1 0x0 DUP2 DUP4 SWAP1 SHL SWAP1 POP PUSH2 0xE45 DUP2 PUSH2 0xFD3 JUMP JUMPDEST SWAP4 POP POP POP POP SWAP4 SWAP3 POP POP POP JUMP JUMPDEST PUSH1 0x60 PUSH1 0x0 PUSH1 0x1 PUSH8 0xFFFFFFFFFFFFFFFF DUP2 GT ISZERO PUSH2 0xE70 JUMPI PUSH2 0xE6F PUSH2 0x159F JUMP JUMPDEST JUMPDEST PUSH1 0x40 MLOAD SWAP1 DUP1 DUP3 MSTORE DUP1 PUSH1 0x1F ADD PUSH1 0x1F NOT AND PUSH1 0x20 ADD DUP3 ADD PUSH1 0x40 MSTORE DUP1 ISZERO PUSH2 0xEA2 JUMPI DUP2 PUSH1 0x20 ADD PUSH1 0x1 DUP3 MUL DUP1 CALLDATASIZE DUP4 CALLDATACOPY DUP1 DUP3 ADD SWAP2 POP POP SWAP1 POP JUMPDEST POP SWAP1 POP DUP3 ISZERO PUSH2 0xEF8 JUMPI PUSH1 0x1 PUSH1 0xF8 SHL DUP2 PUSH1 0x0 DUP2 MLOAD DUP2 LT PUSH2 0xEC4 JUMPI PUSH2 0xEC3 PUSH2 0x2018 JUMP JUMPDEST JUMPDEST PUSH1 0x20 ADD ADD SWAP1 PUSH31 0xFFFFFFFFFFFFFFFFFFFFFFFFFFFFFFFFFFFFFFFFFFFFFFFFFFFFFFFFFFFFFF NOT AND SWAP1 DUP2 PUSH1 0x0 BYTE SWAP1 MSTORE8 POP PUSH2 0xF41 JUMP JUMPDEST PUSH1 0x0 PUSH1 0xF8 SHL DUP2 PUSH1 0x0 DUP2 MLOAD DUP2 LT PUSH2 0xF11 JUMPI PUSH2 0xF10 PUSH2 0x2018 JUMP JUMPDEST JUMPDEST PUSH1 0x20 ADD ADD SWAP1 PUSH31 0xFFFFFFFFFFFFFFFFFFFFFFFFFFFFFFFFFFFFFFFFFFFFFFFFFFFFFFFFFFFFFF NOT AND SWAP1 DUP2 PUSH1 0x0 BYTE SWAP1 MSTORE8 POP JUMPDEST DUP1 SWAP2 POP POP SWAP2 SWAP1 POP JUMP JUMPDEST PUSH1 0x60 PUSH1 0x0 PUSH2 0xF57 DUP6 PUSH2 0xA31 JUMP JUMPDEST PUSH2 0xF60 DUP5 PUSH2 0x113D JUMP JUMPDEST PUSH2 0xF6A SWAP2 SWAP1 PUSH2 0x1E65 JUMP JUMPDEST PUSH2 0xF73 DUP7 PUSH2 0xA31 JUMP JUMPDEST PUSH2 0xF7C DUP7 PUSH2 0x113D JUMP JUMPDEST PUSH2 0xF86 SWAP2 SWAP1 PUSH2 0x1E65 JUMP JUMPDEST LT SWAP1 POP PUSH2 0xF92 DUP2 PUSH2 0xE51 JUMP JUMPDEST SWAP2 POP POP SWAP4 SWAP3 POP POP POP JUMP JUMPDEST PUSH1 0x60 DUP4 SWAP1 POP SWAP4 SWAP3 POP POP POP JUMP JUMPDEST PUSH1 0x60 PUSH1 0x0 PUSH2 0xFB5 DUP6 PUSH2 0x146A JUMP JUMPDEST SWAP1 POP DUP1 ISZERO PUSH2 0xFC6 JUMPI DUP4 SWAP2 POP POP PUSH2 0xFCB JUMP JUMPDEST DUP3 SWAP2 POP POP JUMPDEST SWAP5 SWAP4 POP POP POP POP JUMP JUMPDEST PUSH1 0x60 PUSH1 0x0 PUSH1 0x20 PUSH8 0xFFFFFFFFFFFFFFFF DUP2 GT ISZERO PUSH2 0xFF2 JUMPI PUSH2 0xFF1 PUSH2 0x159F JUMP JUMPDEST JUMPDEST PUSH1 0x40 MLOAD SWAP1 DUP1 DUP3 MSTORE DUP1 PUSH1 0x1F ADD PUSH1 0x1F NOT AND PUSH1 0x20 ADD DUP3 ADD PUSH1 0x40 MSTORE DUP1 ISZERO PUSH2 0x1024 JUMPI DUP2 PUSH1 0x20 ADD PUSH1 0x1 DUP3 MUL DUP1 CALLDATASIZE DUP4 CALLDATACOPY DUP1 DUP3 ADD SWAP2 POP POP SWAP1 POP JUMPDEST POP SWAP1 POP DUP3 PUSH1 0x20 DUP3 ADD MSTORE DUP1 SWAP2 POP POP SWAP2 SWAP1 POP JUMP JUMPDEST PUSH1 0x60 PUSH1 0x0 PUSH2 0x1043 DUP6 PUSH2 0xA31 JUMP JUMPDEST PUSH2 0x104C DUP5 PUSH2 0x113D JUMP JUMPDEST PUSH2 0x1055 DUP7 PUSH2 0x113D JUMP JUMPDEST PUSH2 0x105F SWAP2 SWAP1 PUSH2 0x2047 JUMP JUMPDEST PUSH2 0x1069 SWAP2 SWAP1 PUSH2 0x1E65 JUMP JUMPDEST SWAP1 POP PUSH2 0x1074 DUP2 PUSH2 0xFD3 JUMP JUMPDEST SWAP2 POP POP SWAP4 SWAP3 POP POP POP JUMP JUMPDEST PUSH1 0x60 PUSH1 0x0 DUP3 PUSH2 0x108C SWAP1 PUSH2 0x1F45 JUMP JUMPDEST NOT SWAP1 POP PUSH2 0x1099 DUP2 DUP6 PUSH2 0x12B8 JUMP JUMPDEST SWAP2 POP POP SWAP3 SWAP2 POP POP JUMP JUMPDEST PUSH1 0x60 PUSH1 0x0 PUSH2 0x10AF DUP6 PUSH2 0xA31 JUMP JUMPDEST PUSH2 0x10B8 DUP5 PUSH2 0x113D JUMP JUMPDEST PUSH2 0x10C2 SWAP2 SWAP1 PUSH2 0x1E65 JUMP JUMPDEST PUSH2 0x10CB DUP7 PUSH2 0xA31 JUMP JUMPDEST PUSH2 0x10D4 DUP7 PUSH2 0x113D JUMP JUMPDEST PUSH2 0x10DE SWAP2 SWAP1 PUSH2 0x1E65 JUMP JUMPDEST GT ISZERO SWAP1 POP PUSH2 0x10EB DUP2 PUSH2 0xE51 JUMP JUMPDEST SWAP2 POP POP SWAP4 SWAP3 POP POP POP JUMP JUMPDEST PUSH1 0x60 PUSH1 0x0 PUSH2 0x1102 DUP6 PUSH2 0xA31 JUMP JUMPDEST PUSH2 0x110B DUP5 PUSH2 0x113D JUMP JUMPDEST PUSH2 0x1114 DUP7 PUSH2 0x113D JUMP JUMPDEST PUSH2 0x111E SWAP2 SWAP1 PUSH2 0x1E65 JUMP JUMPDEST PUSH2 0x1128 SWAP2 SWAP1 PUSH2 0x1E65 JUMP JUMPDEST SWAP1 POP PUSH2 0x1133 DUP2 PUSH2 0xFD3 JUMP JUMPDEST SWAP2 POP POP SWAP4 SWAP3 POP POP POP JUMP JUMPDEST PUSH1 0x0 PUSH1 0x20 DUP3 MLOAD GT ISZERO PUSH2 0x1184 JUMPI PUSH1 0x40 MLOAD PUSH32 0x8C379A000000000000000000000000000000000000000000000000000000000 DUP2 MSTORE PUSH1 0x4 ADD PUSH2 0x117B SWAP1 PUSH2 0x20C7 JUMP JUMPDEST PUSH1 0x40 MLOAD DUP1 SWAP2 SUB SWAP1 REVERT JUMPDEST PUSH1 0x0 DUP3 MLOAD PUSH1 0x20 PUSH2 0x1194 SWAP2 SWAP1 PUSH2 0x2047 JUMP JUMPDEST PUSH8 0xFFFFFFFFFFFFFFFF DUP2 GT ISZERO PUSH2 0x11AD JUMPI PUSH2 0x11AC PUSH2 0x159F JUMP JUMPDEST JUMPDEST PUSH1 0x40 MLOAD SWAP1 DUP1 DUP3 MSTORE DUP1 PUSH1 0x1F ADD PUSH1 0x1F NOT AND PUSH1 0x20 ADD DUP3 ADD PUSH1 0x40 MSTORE DUP1 ISZERO PUSH2 0x11DF JUMPI DUP2 PUSH1 0x20 ADD PUSH1 0x1 DUP3 MUL DUP1 CALLDATASIZE DUP4 CALLDATACOPY DUP1 DUP3 ADD SWAP2 POP POP SWAP1 POP JUMPDEST POP DUP4 PUSH1 0x40 MLOAD PUSH1 0x20 ADD PUSH2 0x11F2 SWAP3 SWAP2 SWAP1 PUSH2 0x2123 JUMP JUMPDEST PUSH1 0x40 MLOAD PUSH1 0x20 DUP2 DUP4 SUB SUB DUP2 MSTORE SWAP1 PUSH1 0x40 MSTORE DUP1 PUSH1 0x20 ADD SWAP1 MLOAD DUP2 ADD SWAP1 PUSH2 0x1214 SWAP2 SWAP1 PUSH2 0x215C JUMP JUMPDEST SWAP1 POP DUP1 SWAP2 POP POP SWAP2 SWAP1 POP JUMP JUMPDEST PUSH2 0x12B5 DUP2 PUSH1 0x40 MLOAD PUSH1 0x24 ADD PUSH2 0x1233 SWAP2 SWAP1 PUSH2 0x1B36 JUMP JUMPDEST PUSH1 0x40 MLOAD PUSH1 0x20 DUP2 DUP4 SUB SUB DUP2 MSTORE SWAP1 PUSH1 0x40 MSTORE PUSH32 0x41304FAC00000000000000000000000000000000000000000000000000000000 PUSH28 0xFFFFFFFFFFFFFFFFFFFFFFFFFFFFFFFFFFFFFFFFFFFFFFFFFFFFFFFF NOT AND PUSH1 0x20 DUP3 ADD DUP1 MLOAD PUSH28 0xFFFFFFFFFFFFFFFFFFFFFFFFFFFFFFFFFFFFFFFFFFFFFFFFFFFFFFFF DUP4 DUP2 DUP4 AND OR DUP4 MSTORE POP POP POP POP PUSH2 0x14E7 JUMP JUMPDEST POP JUMP JUMPDEST PUSH1 0x60 DUP3 PUSH1 0x40 MLOAD PUSH1 0x20 ADD PUSH2 0x12CB SWAP2 SWAP1 PUSH2 0x21AA JUMP JUMPDEST PUSH1 0x40 MLOAD PUSH1 0x20 DUP2 DUP4 SUB SUB DUP2 MSTORE SWAP1 PUSH1 0x40 MSTORE SWAP1 POP SWAP3 SWAP2 POP POP JUMP JUMPDEST PUSH1 0x60 PUSH1 0x0 DUP3 SUB PUSH2 0x1329 JUMPI PUSH1 0x40 MLOAD DUP1 PUSH1 0x40 ADD PUSH1 0x40 MSTORE DUP1 PUSH1 0x1 DUP2 MSTORE PUSH1 0x20 ADD PUSH32 0x3000000000000000000000000000000000000000000000000000000000000000 DUP2 MSTORE POP SWAP1 POP PUSH2 0x1465 JUMP JUMPDEST PUSH1 0x0 DUP3 SWAP1 POP PUSH1 0x0 JUMPDEST PUSH1 0x0 DUP3 EQ PUSH2 0x135B JUMPI DUP1 DUP1 PUSH2 0x1344 SWAP1 PUSH2 0x21C5 JUMP JUMPDEST SWAP2 POP POP PUSH1 0xA DUP3 PUSH2 0x1354 SWAP2 SWAP1 PUSH2 0x1E96 JUMP JUMPDEST SWAP2 POP PUSH2 0x1331 JUMP JUMPDEST PUSH1 0x0 DUP2 PUSH8 0xFFFFFFFFFFFFFFFF DUP2 GT ISZERO PUSH2 0x1377 JUMPI PUSH2 0x1376 PUSH2 0x159F JUMP JUMPDEST JUMPDEST PUSH1 0x40 MLOAD SWAP1 DUP1 DUP3 MSTORE DUP1 PUSH1 0x1F ADD PUSH1 0x1F NOT AND PUSH1 0x20 ADD DUP3 ADD PUSH1 0x40 MSTORE DUP1 ISZERO PUSH2 0x13A9 JUMPI DUP2 PUSH1 0x20 ADD PUSH1 0x1 DUP3 MUL DUP1 CALLDATASIZE DUP4 CALLDATACOPY DUP1 DUP3 ADD SWAP2 POP POP SWAP1 POP JUMPDEST POP SWAP1 POP PUSH1 0x0 DUP3 SWAP1 POP JUMPDEST PUSH1 0x0 DUP7 EQ PUSH2 0x145D JUMPI PUSH1 0x1 DUP2 PUSH2 0x13C7 SWAP2 SWAP1 PUSH2 0x2047 JUMP JUMPDEST SWAP1 POP PUSH1 0x0 PUSH1 0xA DUP1 DUP9 PUSH2 0x13D9 SWAP2 SWAP1 PUSH2 0x1E96 JUMP JUMPDEST PUSH2 0x13E3 SWAP2 SWAP1 PUSH2 0x1EC7 JUMP JUMPDEST DUP8 PUSH2 0x13EE SWAP2 SWAP1 PUSH2 0x2047 JUMP JUMPDEST PUSH1 0x30 PUSH2 0x13FA SWAP2 SWAP1 PUSH2 0x220D JUMP JUMPDEST SWAP1 POP PUSH1 0x0 DUP2 PUSH1 0xF8 SHL SWAP1 POP DUP1 DUP5 DUP5 DUP2 MLOAD DUP2 LT PUSH2 0x1418 JUMPI PUSH2 0x1417 PUSH2 0x2018 JUMP JUMPDEST JUMPDEST PUSH1 0x20 ADD ADD SWAP1 PUSH31 0xFFFFFFFFFFFFFFFFFFFFFFFFFFFFFFFFFFFFFFFFFFFFFFFFFFFFFFFFFFFFFF NOT AND SWAP1 DUP2 PUSH1 0x0 BYTE SWAP1 MSTORE8 POP PUSH1 0xA DUP9 PUSH2 0x1454 SWAP2 SWAP1 PUSH2 0x1E96 JUMP JUMPDEST SWAP8 POP POP POP PUSH2 0x13B2 JUMP JUMPDEST DUP2 SWAP5 POP POP POP POP POP JUMPDEST SWAP2 SWAP1 POP JUMP JUMPDEST PUSH1 0x0 PUSH1 0x20 DUP3 MLOAD GT ISZERO PUSH2 0x14B1 JUMPI PUSH1 0x40 MLOAD PUSH32 0x8C379A000000000000000000000000000000000000000000000000000000000 DUP2 MSTORE PUSH1 0x4 ADD PUSH2 0x14A8 SWAP1 PUSH2 0x20C7 JUMP JUMPDEST PUSH1 0x40 MLOAD DUP1 SWAP2 SUB SWAP1 REVERT JUMPDEST PUSH1 0x0 DUP3 PUSH1 0x0 DUP2 MLOAD DUP2 LT PUSH2 0x14C7 JUMPI PUSH2 0x14C6 PUSH2 0x2018 JUMP JUMPDEST JUMPDEST PUSH1 0x20 ADD ADD MLOAD PUSH1 0xF8 SHR PUSH1 0xF8 SHL PUSH1 0xF8 SHR SWAP1 POP PUSH1 0x0 DUP2 PUSH1 0xFF AND EQ ISZERO SWAP2 POP POP SWAP2 SWAP1 POP JUMP JUMPDEST PUSH2 0x14FE DUP2 PUSH2 0x14F6 PUSH2 0x1501 PUSH2 0x1522 JUMP JUMPDEST PUSH4 0xFFFFFFFF AND JUMP JUMPDEST POP JUMP JUMPDEST PUSH1 0x0 PUSH11 0x636F6E736F6C652E6C6F67 SWAP1 POP PUSH1 0x0 DUP1 DUP4 MLOAD PUSH1 0x20 DUP6 ADD DUP5 GAS STATICCALL POP POP POP JUMP JUMPDEST PUSH2 0x152D DUP2 SWAP1 POP SWAP2 SWAP1 POP JUMP JUMPDEST PUSH2 0x1535 PUSH2 0x2242 JUMP JUMPDEST JUMP JUMPDEST PUSH1 0x0 PUSH1 0x40 MLOAD SWAP1 POP SWAP1 JUMP JUMPDEST PUSH1 0x0 DUP1 REVERT JUMPDEST PUSH1 0x0 DUP1 REVERT JUMPDEST PUSH1 0x0 PUSH1 0xFF DUP3 AND SWAP1 POP SWAP2 SWAP1 POP JUMP JUMPDEST PUSH2 0x1561 DUP2 PUSH2 0x154B JUMP JUMPDEST DUP2 EQ PUSH2 0x156C JUMPI PUSH1 0x0 DUP1 REVERT JUMPDEST POP JUMP JUMPDEST PUSH1 0x0 DUP2 CALLDATALOAD SWAP1 POP PUSH2 0x157E DUP2 PUSH2 0x1558 JUMP JUMPDEST SWAP3 SWAP2 POP POP JUMP JUMPDEST PUSH1 0x0 DUP1 REVERT JUMPDEST PUSH1 0x0 DUP1 REVERT JUMPDEST PUSH1 0x0 PUSH1 0x1F NOT PUSH1 0x1F DUP4 ADD AND SWAP1 POP SWAP2 SWAP1 POP JUMP JUMPDEST PUSH32 0x4E487B7100000000000000000000000000000000000000000000000000000000 PUSH1 0x0 MSTORE PUSH1 0x41 PUSH1 0x4 MSTORE PUSH1 0x24 PUSH1 0x0 REVERT JUMPDEST PUSH2 0x15D7 DUP3 PUSH2 0x158E JUMP JUMPDEST DUP2 ADD DUP2 DUP2 LT PUSH8 0xFFFFFFFFFFFFFFFF DUP3 GT OR ISZERO PUSH2 0x15F6 JUMPI PUSH2 0x15F5 PUSH2 0x159F JUMP JUMPDEST JUMPDEST DUP1 PUSH1 0x40 MSTORE POP POP POP JUMP JUMPDEST PUSH1 0x0 PUSH2 0x1609 PUSH2 0x1537 JUMP JUMPDEST SWAP1 POP PUSH2 0x1615 DUP3 DUP3 PUSH2 0x15CE JUMP JUMPDEST SWAP2 SWAP1 POP JUMP JUMPDEST PUSH1 0x0 PUSH8 0xFFFFFFFFFFFFFFFF DUP3 GT ISZERO PUSH2 0x1635 JUMPI PUSH2 0x1634 PUSH2 0x159F JUMP JUMPDEST JUMPDEST PUSH2 0x163E DUP3 PUSH2 0x158E JUMP JUMPDEST SWAP1 POP PUSH1 0x20 DUP2 ADD SWAP1 POP SWAP2 SWAP1 POP JUMP JUMPDEST DUP3 DUP2 DUP4 CALLDATACOPY PUSH1 0x0 DUP4 DUP4 ADD MSTORE POP POP POP JUMP JUMPDEST PUSH1 0x0 PUSH2 0x166D PUSH2 0x1668 DUP5 PUSH2 0x161A JUMP JUMPDEST PUSH2 0x15FF JUMP JUMPDEST SWAP1 POP DUP3 DUP2 MSTORE PUSH1 0x20 DUP2 ADD DUP5 DUP5 DUP5 ADD GT ISZERO PUSH2 0x1689 JUMPI PUSH2 0x1688 PUSH2 0x1589 JUMP JUMPDEST JUMPDEST PUSH2 0x1694 DUP5 DUP3 DUP6 PUSH2 0x164B JUMP JUMPDEST POP SWAP4 SWAP3 POP POP POP JUMP JUMPDEST PUSH1 0x0 DUP3 PUSH1 0x1F DUP4 ADD SLT PUSH2 0x16B1 JUMPI PUSH2 0x16B0 PUSH2 0x1584 JUMP JUMPDEST JUMPDEST DUP2 CALLDATALOAD PUSH2 0x16C1 DUP5 DUP3 PUSH1 0x20 DUP7 ADD PUSH2 0x165A JUMP JUMPDEST SWAP2 POP POP SWAP3 SWAP2 POP POP JUMP JUMPDEST PUSH1 0x0 DUP1 PUSH1 0x0 PUSH1 0x60 DUP5 DUP7 SUB SLT ISZERO PUSH2 0x16E3 JUMPI PUSH2 0x16E2 PUSH2 0x1541 JUMP JUMPDEST JUMPDEST PUSH1 0x0 PUSH2 0x16F1 DUP7 DUP3 DUP8 ADD PUSH2 0x156F JUMP JUMPDEST SWAP4 POP POP PUSH1 0x20 DUP5 ADD CALLDATALOAD PUSH8 0xFFFFFFFFFFFFFFFF DUP2 GT ISZERO PUSH2 0x1712 JUMPI PUSH2 0x1711 PUSH2 0x1546 JUMP JUMPDEST JUMPDEST PUSH2 0x171E DUP7 DUP3 DUP8 ADD PUSH2 0x169C JUMP JUMPDEST SWAP3 POP POP PUSH1 0x40 DUP5 ADD CALLDATALOAD PUSH8 0xFFFFFFFFFFFFFFFF DUP2 GT ISZERO PUSH2 0x173F JUMPI PUSH2 0x173E PUSH2 0x1546 JUMP JUMPDEST JUMPDEST PUSH2 0x174B DUP7 DUP3 DUP8 ADD PUSH2 0x169C JUMP JUMPDEST SWAP2 POP POP SWAP3 POP SWAP3 POP SWAP3 JUMP JUMPDEST PUSH1 0x0 DUP2 MLOAD SWAP1 POP SWAP2 SWAP1 POP JUMP JUMPDEST PUSH1 0x0 DUP3 DUP3 MSTORE PUSH1 0x20 DUP3 ADD SWAP1 POP SWAP3 SWAP2 POP POP JUMP JUMPDEST PUSH1 0x0 JUMPDEST DUP4 DUP2 LT ISZERO PUSH2 0x178F JUMPI DUP1 DUP3 ADD MLOAD DUP2 DUP5 ADD MSTORE PUSH1 0x20 DUP2 ADD SWAP1 POP PUSH2 0x1774 JUMP JUMPDEST PUSH1 0x0 DUP5 DUP5 ADD MSTORE POP POP POP POP JUMP JUMPDEST PUSH1 0x0 PUSH2 0x17A6 DUP3 PUSH2 0x1755 JUMP JUMPDEST PUSH2 0x17B0 DUP2 DUP6 PUSH2 0x1760 JUMP JUMPDEST SWAP4 POP PUSH2 0x17C0 DUP2 DUP6 PUSH1 0x20 DUP7 ADD PUSH2 0x1771 JUMP JUMPDEST PUSH2 0x17C9 DUP2 PUSH2 0x158E JUMP JUMPDEST DUP5 ADD SWAP2 POP POP SWAP3 SWAP2 POP POP JUMP JUMPDEST PUSH1 0x0 PUSH1 0x20 DUP3 ADD SWAP1 POP DUP2 DUP2 SUB PUSH1 0x0 DUP4 ADD MSTORE PUSH2 0x17EE DUP2 DUP5 PUSH2 0x179B JUMP JUMPDEST SWAP1 POP SWAP3 SWAP2 POP POP JUMP JUMPDEST PUSH1 0x0 DUP2 PUSH1 0x3 SIGNEXTEND SWAP1 POP SWAP2 SWAP1 POP JUMP JUMPDEST PUSH2 0x180C DUP2 PUSH2 0x17F6 JUMP JUMPDEST DUP2 EQ PUSH2 0x1817 JUMPI PUSH1 0x0 DUP1 REVERT JUMPDEST POP JUMP JUMPDEST PUSH1 0x0 DUP2 CALLDATALOAD SWAP1 POP PUSH2 0x1829 DUP2 PUSH2 0x1803 JUMP JUMPDEST SWAP3 SWAP2 POP POP JUMP JUMPDEST PUSH1 0x0 PUSH1 0x20 DUP3 DUP5 SUB SLT ISZERO PUSH2 0x1845 JUMPI PUSH2 0x1844 PUSH2 0x1541 JUMP JUMPDEST JUMPDEST PUSH1 0x0 PUSH2 0x1853 DUP5 DUP3 DUP6 ADD PUSH2 0x181A JUMP JUMPDEST SWAP2 POP POP SWAP3 SWAP2 POP POP JUMP JUMPDEST PUSH1 0x0 DUP1 PUSH1 0x0 PUSH1 0x60 DUP5 DUP7 SUB SLT ISZERO PUSH2 0x1875 JUMPI PUSH2 0x1874 PUSH2 0x1541 JUMP JUMPDEST JUMPDEST PUSH1 0x0 PUSH2 0x1883 DUP7 DUP3 DUP8 ADD PUSH2 0x156F JUMP JUMPDEST SWAP4 POP POP PUSH1 0x20 DUP5 ADD CALLDATALOAD PUSH8 0xFFFFFFFFFFFFFFFF DUP2 GT ISZERO PUSH2 0x18A4 JUMPI PUSH2 0x18A3 PUSH2 0x1546 JUMP JUMPDEST JUMPDEST PUSH2 0x18B0 DUP7 DUP3 DUP8 ADD PUSH2 0x169C JUMP JUMPDEST SWAP3 POP POP PUSH1 0x40 PUSH2 0x18C1 DUP7 DUP3 DUP8 ADD PUSH2 0x181A JUMP JUMPDEST SWAP2 POP POP SWAP3 POP SWAP3 POP SWAP3 JUMP JUMPDEST PUSH1 0x0 PUSH8 0xFFFFFFFFFFFFFFFF DUP3 GT ISZERO PUSH2 0x18E6 JUMPI PUSH2 0x18E5 PUSH2 0x159F JUMP JUMPDEST JUMPDEST PUSH2 0x18EF DUP3 PUSH2 0x158E JUMP JUMPDEST SWAP1 POP PUSH1 0x20 DUP2 ADD SWAP1 POP SWAP2 SWAP1 POP JUMP JUMPDEST PUSH1 0x0 PUSH2 0x190F PUSH2 0x190A DUP5 PUSH2 0x18CB JUMP JUMPDEST PUSH2 0x15FF JUMP JUMPDEST SWAP1 POP DUP3 DUP2 MSTORE PUSH1 0x20 DUP2 ADD DUP5 DUP5 DUP5 ADD GT ISZERO PUSH2 0x192B JUMPI PUSH2 0x192A PUSH2 0x1589 JUMP JUMPDEST JUMPDEST PUSH2 0x1936 DUP5 DUP3 DUP6 PUSH2 0x164B JUMP JUMPDEST POP SWAP4 SWAP3 POP POP POP JUMP JUMPDEST PUSH1 0x0 DUP3 PUSH1 0x1F DUP4 ADD SLT PUSH2 0x1953 JUMPI PUSH2 0x1952 PUSH2 0x1584 JUMP JUMPDEST JUMPDEST DUP2 CALLDATALOAD PUSH2 0x1963 DUP5 DUP3 PUSH1 0x20 DUP7 ADD PUSH2 0x18FC JUMP JUMPDEST SWAP2 POP POP SWAP3 SWAP2 POP POP JUMP JUMPDEST PUSH1 0x0 PUSH1 0x20 DUP3 DUP5 SUB SLT ISZERO PUSH2 0x1982 JUMPI PUSH2 0x1981 PUSH2 0x1541 JUMP JUMPDEST JUMPDEST PUSH1 0x0 DUP3 ADD CALLDATALOAD PUSH8 0xFFFFFFFFFFFFFFFF DUP2 GT ISZERO PUSH2 0x19A0 JUMPI PUSH2 0x199F PUSH2 0x1546 JUMP JUMPDEST JUMPDEST PUSH2 0x19AC DUP5 DUP3 DUP6 ADD PUSH2 0x193E JUMP JUMPDEST SWAP2 POP POP SWAP3 SWAP2 POP POP JUMP JUMPDEST PUSH1 0x0 DUP1 PUSH1 0x0 PUSH1 0x60 DUP5 DUP7 SUB SLT ISZERO PUSH2 0x19CE JUMPI PUSH2 0x19CD PUSH2 0x1541 JUMP JUMPDEST JUMPDEST PUSH1 0x0 PUSH2 0x19DC DUP7 DUP3 DUP8 ADD PUSH2 0x156F JUMP JUMPDEST SWAP4 POP POP PUSH1 0x20 DUP5 ADD CALLDATALOAD PUSH8 0xFFFFFFFFFFFFFFFF DUP2 GT ISZERO PUSH2 0x19FD JUMPI PUSH2 0x19FC PUSH2 0x1546 JUMP JUMPDEST JUMPDEST PUSH2 0x1A09 DUP7 DUP3 DUP8 ADD PUSH2 0x169C JUMP JUMPDEST SWAP3 POP POP PUSH1 0x40 PUSH2 0x1A1A DUP7 DUP3 DUP8 ADD PUSH2 0x156F JUMP JUMPDEST SWAP2 POP POP SWAP3 POP SWAP3 POP SWAP3 JUMP JUMPDEST PUSH1 0x0 PUSH1 0x20 DUP3 DUP5 SUB SLT ISZERO PUSH2 0x1A3A JUMPI PUSH2 0x1A39 PUSH2 0x1541 JUMP JUMPDEST JUMPDEST PUSH1 0x0 PUSH2 0x1A48 DUP5 DUP3 DUP6 ADD PUSH2 0x156F JUMP JUMPDEST SWAP2 POP POP SWAP3 SWAP2 POP POP JUMP JUMPDEST PUSH1 0x0 DUP2 SWAP1 POP SWAP2 SWAP1 POP JUMP JUMPDEST PUSH2 0x1A64 DUP2 PUSH2 0x1A51 JUMP JUMPDEST DUP3 MSTORE POP POP JUMP JUMPDEST PUSH1 0x0 PUSH1 0x20 DUP3 ADD SWAP1 POP PUSH2 0x1A7F PUSH1 0x0 DUP4 ADD DUP5 PUSH2 0x1A5B JUMP JUMPDEST SWAP3 SWAP2 POP POP JUMP JUMPDEST PUSH1 0x0 DUP1 PUSH1 0x40 DUP4 DUP6 SUB SLT ISZERO PUSH2 0x1A9C JUMPI PUSH2 0x1A9B PUSH2 0x1541 JUMP JUMPDEST JUMPDEST PUSH1 0x0 PUSH2 0x1AAA DUP6 DUP3 DUP7 ADD PUSH2 0x156F JUMP JUMPDEST SWAP3 POP POP PUSH1 0x20 DUP4 ADD CALLDATALOAD PUSH8 0xFFFFFFFFFFFFFFFF DUP2 GT ISZERO PUSH2 0x1ACB JUMPI PUSH2 0x1ACA PUSH2 0x1546 JUMP JUMPDEST JUMPDEST PUSH2 0x1AD7 DUP6 DUP3 DUP7 ADD PUSH2 0x169C JUMP JUMPDEST SWAP2 POP POP SWAP3 POP SWAP3 SWAP1 POP JUMP JUMPDEST PUSH1 0x0 DUP2 MLOAD SWAP1 POP SWAP2 SWAP1 POP JUMP JUMPDEST PUSH1 0x0 DUP3 DUP3 MSTORE PUSH1 0x20 DUP3 ADD SWAP1 POP SWAP3 SWAP2 POP POP JUMP JUMPDEST PUSH1 0x0 PUSH2 0x1B08 DUP3 PUSH2 0x1AE1 JUMP JUMPDEST PUSH2 0x1B12 DUP2 DUP6 PUSH2 0x1AEC JUMP JUMPDEST SWAP4 POP PUSH2 0x1B22 DUP2 DUP6 PUSH1 0x20 DUP7 ADD PUSH2 0x1771 JUMP JUMPDEST PUSH2 0x1B2B DUP2 PUSH2 0x158E JUMP JUMPDEST DUP5 ADD SWAP2 POP POP SWAP3 SWAP2 POP POP JUMP JUMPDEST PUSH1 0x0 PUSH1 0x20 DUP3 ADD SWAP1 POP DUP2 DUP2 SUB PUSH1 0x0 DUP4 ADD MSTORE PUSH2 0x1B50 DUP2 DUP5 PUSH2 0x1AFD JUMP JUMPDEST SWAP1 POP SWAP3 SWAP2 POP POP JUMP JUMPDEST PUSH1 0x0 PUSH8 0xFFFFFFFFFFFFFFFF DUP3 AND SWAP1 POP SWAP2 SWAP1 POP JUMP JUMPDEST PUSH2 0x1B75 DUP2 PUSH2 0x1B58 JUMP JUMPDEST DUP2 EQ PUSH2 0x1B80 JUMPI PUSH1 0x0 DUP1 REVERT JUMPDEST POP JUMP JUMPDEST PUSH1 0x0 DUP2 CALLDATALOAD SWAP1 POP PUSH2 0x1B92 DUP2 PUSH2 0x1B6C JUMP JUMPDEST SWAP3 SWAP2 POP POP JUMP JUMPDEST PUSH1 0x0 DUP1 PUSH1 0x0 PUSH1 0x60 DUP5 DUP7 SUB SLT ISZERO PUSH2 0x1BB1 JUMPI PUSH2 0x1BB0 PUSH2 0x1541 JUMP JUMPDEST JUMPDEST PUSH1 0x0 PUSH2 0x1BBF DUP7 DUP3 DUP8 ADD PUSH2 0x156F JUMP JUMPDEST SWAP4 POP POP PUSH1 0x20 PUSH2 0x1BD0 DUP7 DUP3 DUP8 ADD PUSH2 0x1B83 JUMP JUMPDEST SWAP3 POP POP PUSH1 0x40 PUSH2 0x1BE1 DUP7 DUP3 DUP8 ADD PUSH2 0x181A JUMP JUMPDEST SWAP2 POP POP SWAP3 POP SWAP3 POP SWAP3 JUMP JUMPDEST PUSH1 0x0 DUP2 ISZERO ISZERO SWAP1 POP SWAP2 SWAP1 POP JUMP JUMPDEST PUSH2 0x1C00 DUP2 PUSH2 0x1BEB JUMP JUMPDEST DUP2 EQ PUSH2 0x1C0B JUMPI PUSH1 0x0 DUP1 REVERT JUMPDEST POP JUMP JUMPDEST PUSH1 0x0 DUP2 CALLDATALOAD SWAP1 POP PUSH2 0x1C1D DUP2 PUSH2 0x1BF7 JUMP JUMPDEST SWAP3 SWAP2 POP POP JUMP JUMPDEST PUSH1 0x0 PUSH1 0x20 DUP3 DUP5 SUB SLT ISZERO PUSH2 0x1C39 JUMPI PUSH2 0x1C38 PUSH2 0x1541 JUMP JUMPDEST JUMPDEST PUSH1 0x0 PUSH2 0x1C47 DUP5 DUP3 DUP6 ADD PUSH2 0x1C0E JUMP JUMPDEST SWAP2 POP POP SWAP3 SWAP2 POP POP JUMP JUMPDEST PUSH1 0x0 DUP1 PUSH1 0x0 PUSH1 0x60 DUP5 DUP7 SUB SLT ISZERO PUSH2 0x1C69 JUMPI PUSH2 0x1C68 PUSH2 0x1541 JUMP JUMPDEST JUMPDEST PUSH1 0x0 DUP5 ADD CALLDATALOAD PUSH8 0xFFFFFFFFFFFFFFFF DUP2 GT ISZERO PUSH2 0x1C87 JUMPI PUSH2 0x1C86 PUSH2 0x1546 JUMP JUMPDEST JUMPDEST PUSH2 0x1C93 DUP7 DUP3 DUP8 ADD PUSH2 0x169C JUMP JUMPDEST SWAP4 POP POP PUSH1 0x20 PUSH2 0x1CA4 DUP7 DUP3 DUP8 ADD PUSH2 0x156F JUMP JUMPDEST SWAP3 POP POP PUSH1 0x40 PUSH2 0x1CB5 DUP7 DUP3 DUP8 ADD PUSH2 0x181A JUMP JUMPDEST SWAP2 POP POP SWAP3 POP SWAP3 POP SWAP3 JUMP JUMPDEST PUSH1 0x0 DUP1 PUSH1 0x0 DUP1 PUSH1 0x80 DUP6 DUP8 SUB SLT ISZERO PUSH2 0x1CD9 JUMPI PUSH2 0x1CD8 PUSH2 0x1541 JUMP JUMPDEST JUMPDEST PUSH1 0x0 PUSH2 0x1CE7 DUP8 DUP3 DUP9 ADD PUSH2 0x156F JUMP JUMPDEST SWAP5 POP POP PUSH1 0x20 DUP6 ADD CALLDATALOAD PUSH8 0xFFFFFFFFFFFFFFFF DUP2 GT ISZERO PUSH2 0x1D08 JUMPI PUSH2 0x1D07 PUSH2 0x1546 JUMP JUMPDEST JUMPDEST PUSH2 0x1D14 DUP8 DUP3 DUP9 ADD PUSH2 0x169C JUMP JUMPDEST SWAP4 POP POP PUSH1 0x40 DUP6 ADD CALLDATALOAD PUSH8 0xFFFFFFFFFFFFFFFF DUP2 GT ISZERO PUSH2 0x1D35 JUMPI PUSH2 0x1D34 PUSH2 0x1546 JUMP JUMPDEST JUMPDEST PUSH2 0x1D41 DUP8 DUP3 DUP9 ADD PUSH2 0x169C JUMP JUMPDEST SWAP3 POP POP PUSH1 0x60 DUP6 ADD CALLDATALOAD PUSH8 0xFFFFFFFFFFFFFFFF DUP2 GT ISZERO PUSH2 0x1D62 JUMPI PUSH2 0x1D61 PUSH2 0x1546 JUMP JUMPDEST JUMPDEST PUSH2 0x1D6E DUP8 DUP3 DUP9 ADD PUSH2 0x169C JUMP JUMPDEST SWAP2 POP POP SWAP3 SWAP6 SWAP2 SWAP5 POP SWAP3 POP JUMP JUMPDEST PUSH2 0x1D83 DUP2 PUSH2 0x1A51 JUMP JUMPDEST DUP2 EQ PUSH2 0x1D8E JUMPI PUSH1 0x0 DUP1 REVERT JUMPDEST POP JUMP JUMPDEST PUSH1 0x0 DUP2 CALLDATALOAD SWAP1 POP PUSH2 0x1DA0 DUP2 PUSH2 0x1D7A JUMP JUMPDEST SWAP3 SWAP2 POP POP JUMP JUMPDEST PUSH1 0x0 PUSH1 0x20 DUP3 DUP5 SUB SLT ISZERO PUSH2 0x1DBC JUMPI PUSH2 0x1DBB PUSH2 0x1541 JUMP JUMPDEST JUMPDEST PUSH1 0x0 PUSH2 0x1DCA DUP5 DUP3 DUP6 ADD PUSH2 0x1D91 JUMP JUMPDEST SWAP2 POP POP SWAP3 SWAP2 POP POP JUMP JUMPDEST PUSH32 0x4E487B7100000000000000000000000000000000000000000000000000000000 PUSH1 0x0 MSTORE PUSH1 0x11 PUSH1 0x4 MSTORE PUSH1 0x24 PUSH1 0x0 REVERT JUMPDEST PUSH1 0x0 PUSH2 0x1E0D DUP3 PUSH2 0x1A51 JUMP JUMPDEST SWAP2 POP PUSH2 0x1E18 DUP4 PUSH2 0x1A51 JUMP JUMPDEST SWAP3 POP DUP3 DUP3 ADD SWAP1 POP DUP1 DUP3 GT ISZERO PUSH2 0x1E30 JUMPI PUSH2 0x1E2F PUSH2 0x1DD3 JUMP JUMPDEST JUMPDEST SWAP3 SWAP2 POP POP JUMP JUMPDEST PUSH32 0x4E487B7100000000000000000000000000000000000000000000000000000000 PUSH1 0x0 MSTORE PUSH1 0x12 PUSH1 0x4 MSTORE PUSH1 0x24 PUSH1 0x0 REVERT JUMPDEST PUSH1 0x0 PUSH2 0x1E70 DUP3 PUSH2 0x1A51 JUMP JUMPDEST SWAP2 POP PUSH2 0x1E7B DUP4 PUSH2 0x1A51 JUMP JUMPDEST SWAP3 POP DUP3 PUSH2 0x1E8B JUMPI PUSH2 0x1E8A PUSH2 0x1E36 JUMP JUMPDEST JUMPDEST DUP3 DUP3 MOD SWAP1 POP SWAP3 SWAP2 POP POP JUMP JUMPDEST PUSH1 0x0 PUSH2 0x1EA1 DUP3 PUSH2 0x1A51 JUMP JUMPDEST SWAP2 POP PUSH2 0x1EAC DUP4 PUSH2 0x1A51 JUMP JUMPDEST SWAP3 POP DUP3 PUSH2 0x1EBC JUMPI PUSH2 0x1EBB PUSH2 0x1E36 JUMP JUMPDEST JUMPDEST DUP3 DUP3 DIV SWAP1 POP SWAP3 SWAP2 POP POP JUMP JUMPDEST PUSH1 0x0 PUSH2 0x1ED2 DUP3 PUSH2 0x1A51 JUMP JUMPDEST SWAP2 POP PUSH2 0x1EDD DUP4 PUSH2 0x1A51 JUMP JUMPDEST SWAP3 POP DUP3 DUP3 MUL PUSH2 0x1EEB DUP2 PUSH2 0x1A51 JUMP JUMPDEST SWAP2 POP DUP3 DUP3 DIV DUP5 EQ DUP4 ISZERO OR PUSH2 0x1F02 JUMPI PUSH2 0x1F01 PUSH2 0x1DD3 JUMP JUMPDEST JUMPDEST POP SWAP3 SWAP2 POP POP JUMP JUMPDEST PUSH1 0x0 DUP2 SWAP1 POP PUSH1 0x20 DUP3 ADD SWAP1 POP SWAP2 SWAP1 POP JUMP JUMPDEST PUSH1 0x0 DUP2 SWAP1 POP SWAP2 SWAP1 POP JUMP JUMPDEST PUSH1 0x0 PUSH2 0x1F2F DUP3 MLOAD PUSH2 0x1F19 JUMP JUMPDEST DUP1 SWAP2 POP POP SWAP2 SWAP1 POP JUMP JUMPDEST PUSH1 0x0 DUP3 DUP3 SHL SWAP1 POP SWAP3 SWAP2 POP POP JUMP JUMPDEST PUSH1 0x0 PUSH2 0x1F50 DUP3 PUSH2 0x1755 JUMP JUMPDEST DUP3 PUSH2 0x1F5A DUP5 PUSH2 0x1F09 JUMP JUMPDEST SWAP1 POP PUSH2 0x1F65 DUP2 PUSH2 0x1F23 JUMP JUMPDEST SWAP3 POP PUSH1 0x20 DUP3 LT ISZERO PUSH2 0x1FA5 JUMPI PUSH2 0x1FA0 PUSH32 0xFFFFFFFFFFFFFFFFFFFFFFFFFFFFFFFFFFFFFFFFFFFFFFFFFFFFFFFFFFFFFFFF DUP4 PUSH1 0x20 SUB PUSH1 0x8 MUL PUSH2 0x1F38 JUMP JUMPDEST DUP4 AND SWAP3 POP JUMPDEST POP POP SWAP2 SWAP1 POP JUMP JUMPDEST PUSH32 0x556E737570706F72746564207479706500000000000000000000000000000000 PUSH1 0x0 DUP3 ADD MSTORE POP JUMP JUMPDEST PUSH1 0x0 PUSH2 0x1FE2 PUSH1 0x10 DUP4 PUSH2 0x1AEC JUMP JUMPDEST SWAP2 POP PUSH2 0x1FED DUP3 PUSH2 0x1FAC JUMP JUMPDEST PUSH1 0x20 DUP3 ADD SWAP1 POP SWAP2 SWAP1 POP JUMP JUMPDEST PUSH1 0x0 PUSH1 0x20 DUP3 ADD SWAP1 POP DUP2 DUP2 SUB PUSH1 0x0 DUP4 ADD MSTORE PUSH2 0x2011 DUP2 PUSH2 0x1FD5 JUMP JUMPDEST SWAP1 POP SWAP2 SWAP1 POP JUMP JUMPDEST PUSH32 0x4E487B7100000000000000000000000000000000000000000000000000000000 PUSH1 0x0 MSTORE PUSH1 0x32 PUSH1 0x4 MSTORE PUSH1 0x24 PUSH1 0x0 REVERT JUMPDEST PUSH1 0x0 PUSH2 0x2052 DUP3 PUSH2 0x1A51 JUMP JUMPDEST SWAP2 POP PUSH2 0x205D DUP4 PUSH2 0x1A51 JUMP JUMPDEST SWAP3 POP DUP3 DUP3 SUB SWAP1 POP DUP2 DUP2 GT ISZERO PUSH2 0x2075 JUMPI PUSH2 0x2074 PUSH2 0x1DD3 JUMP JUMPDEST JUMPDEST SWAP3 SWAP2 POP POP JUMP JUMPDEST PUSH32 0x4279746573206C656E67746820657863656564732033322E0000000000000000 PUSH1 0x0 DUP3 ADD MSTORE POP JUMP JUMPDEST PUSH1 0x0 PUSH2 0x20B1 PUSH1 0x18 DUP4 PUSH2 0x1AEC JUMP JUMPDEST SWAP2 POP PUSH2 0x20BC DUP3 PUSH2 0x207B JUMP JUMPDEST PUSH1 0x20 DUP3 ADD SWAP1 POP SWAP2 SWAP1 POP JUMP JUMPDEST PUSH1 0x0 PUSH1 0x20 DUP3 ADD SWAP1 POP DUP2 DUP2 SUB PUSH1 0x0 DUP4 ADD MSTORE PUSH2 0x20E0 DUP2 PUSH2 0x20A4 JUMP JUMPDEST SWAP1 POP SWAP2 SWAP1 POP JUMP JUMPDEST PUSH1 0x0 DUP2 SWAP1 POP SWAP3 SWAP2 POP POP JUMP JUMPDEST PUSH1 0x0 PUSH2 0x20FD DUP3 PUSH2 0x1755 JUMP JUMPDEST PUSH2 0x2107 DUP2 DUP6 PUSH2 0x20E7 JUMP JUMPDEST SWAP4 POP PUSH2 0x2117 DUP2 DUP6 PUSH1 0x20 DUP7 ADD PUSH2 0x1771 JUMP JUMPDEST DUP1 DUP5 ADD SWAP2 POP POP SWAP3 SWAP2 POP POP JUMP JUMPDEST PUSH1 0x0 PUSH2 0x212F DUP3 DUP6 PUSH2 0x20F2 JUMP JUMPDEST SWAP2 POP PUSH2 0x213B DUP3 DUP5 PUSH2 0x20F2 JUMP JUMPDEST SWAP2 POP DUP2 SWAP1 POP SWAP4 SWAP3 POP POP POP JUMP JUMPDEST PUSH1 0x0 DUP2 MLOAD SWAP1 POP PUSH2 0x2156 DUP2 PUSH2 0x1D7A JUMP JUMPDEST SWAP3 SWAP2 POP POP JUMP JUMPDEST PUSH1 0x0 PUSH1 0x20 DUP3 DUP5 SUB SLT ISZERO PUSH2 0x2172 JUMPI PUSH2 0x2171 PUSH2 0x1541 JUMP JUMPDEST JUMPDEST PUSH1 0x0 PUSH2 0x2180 DUP5 DUP3 DUP6 ADD PUSH2 0x2147 JUMP JUMPDEST SWAP2 POP POP SWAP3 SWAP2 POP POP JUMP JUMPDEST PUSH1 0x0 DUP2 SWAP1 POP SWAP2 SWAP1 POP JUMP JUMPDEST PUSH2 0x21A4 PUSH2 0x219F DUP3 PUSH2 0x1F19 JUMP JUMPDEST PUSH2 0x2189 JUMP JUMPDEST DUP3 MSTORE POP POP JUMP JUMPDEST PUSH1 0x0 PUSH2 0x21B6 DUP3 DUP5 PUSH2 0x2193 JUMP JUMPDEST PUSH1 0x20 DUP3 ADD SWAP2 POP DUP2 SWAP1 POP SWAP3 SWAP2 POP POP JUMP JUMPDEST PUSH1 0x0 PUSH2 0x21D0 DUP3 PUSH2 0x1A51 JUMP JUMPDEST SWAP2 POP PUSH32 0xFFFFFFFFFFFFFFFFFFFFFFFFFFFFFFFFFFFFFFFFFFFFFFFFFFFFFFFFFFFFFFFF DUP3 SUB PUSH2 0x2202 JUMPI PUSH2 0x2201 PUSH2 0x1DD3 JUMP JUMPDEST JUMPDEST PUSH1 0x1 DUP3 ADD SWAP1 POP SWAP2 SWAP1 POP JUMP JUMPDEST PUSH1 0x0 PUSH2 0x2218 DUP3 PUSH2 0x154B JUMP JUMPDEST SWAP2 POP PUSH2 0x2223 DUP4 PUSH2 0x154B JUMP JUMPDEST SWAP3 POP DUP3 DUP3 ADD SWAP1 POP PUSH1 0xFF DUP2 GT ISZERO PUSH2 0x223C JUMPI PUSH2 0x223B PUSH2 0x1DD3 JUMP JUMPDEST JUMPDEST SWAP3 SWAP2 POP POP JUMP JUMPDEST PUSH32 0x4E487B7100000000000000000000000000000000000000000000000000000000 PUSH1 0x0 MSTORE PUSH1 0x51 PUSH1 0x4 MSTORE PUSH1 0x24 PUSH1 0x0 REVERT INVALID 0x28 0x28 0x2D 0x28 0x2D PUSH0 0x28 0x2D PUSH0 0x2D 0x29 PUSH0 0x2D 0x29 0x2D 0x29 0x29 KECCAK256 MSIZE PUSH16 0x75277665207374657070656420696E74 PUSH16 0x207468652077726F6E67206E65696768 PUSH3 0x6F7268 PUSH16 0x6F642070616C2EA26469706673582212 KECCAK256 0xF9 STOP PUSH24 0x90E938BFC35125CF647BD7919DD24DD46EF62D781ABDED66 0xE1 SELFDESTRUCT 0xCE DUP2 0xD6 PUSH5 0x736F6C6343 STOP ADDMOD EQ STOP CALLER "},"methodIdentifiers":{"add(uint8,bytes,bytes)":"002df619","and(uint8,bytes,bytes)":"ae104cfd","boolToBytes(bool)":"b8fa1043","cast(uint8,bytes,uint8)":"4a5a1117","decrypt(uint8,bytes)":"73cc0154","div(uint8,bytes,bytes)":"1f4cda2f","eq(uint8,bytes,bytes)":"92348b34","getNetworkPublicKey(int32)":"1b1b484e","gt(uint8,bytes,bytes)":"874b1c10","gte(uint8,bytes,bytes)":"650de1cf","log(string)":"41304fac","lt(uint8,bytes,bytes)":"b9c7a54b","lte(uint8,bytes,bytes)":"eb274b77","max(uint8,bytes,bytes)":"0b80518e","maxValue(uint8)":"55e5e6c5","min(uint8,bytes,bytes)":"5211c679","mul(uint8,bytes,bytes)":"4284f765","ne(uint8,bytes,bytes)":"13c0c9ae","not(uint8,bytes)":"d260d9ab","or(uint8,bytes,bytes)":"72d456f5","random(uint8,uint64,int32)":"aa626e8a","rem(uint8,bytes,bytes)":"eb376804","req(uint8,bytes)":"7d23f1db","sealOutput(uint8,bytes,bytes)":"a1848ff3","select(uint8,bytes,bytes,bytes)":"c2d96952","shl(uint8,bytes,bytes)":"ae42450a","shr(uint8,bytes,bytes)":"9944d12d","sub(uint8,bytes,bytes)":"cc2cbeff","trivialEncrypt(bytes,uint8,int32)":"ba19ac28","uint256ToBytes(uint256)":"c7559da4","verify(uint8,bytes,int32)":"21b50ba3","xor(uint8,bytes,bytes)":"5e639f19"}}}}}