{
  "_format": "hh-sol-artifact-1",
  "contractName": "MockFheOps",
  "sourceName": "@fhenixprotocol/contracts/utils/debug/MockFheOps.sol",
  "abi": [
    {
      "inputs": [
        {
          "internalType": "uint8",
          "name": "utype",
          "type": "uint8"
        },
        {
          "internalType": "bytes",
          "name": "lhsHash",
          "type": "bytes"
        },
        {
          "internalType": "bytes",
          "name": "rhsHash",
          "type": "bytes"
        }
      ],
      "name": "add",
      "outputs": [
        {
          "internalType": "bytes",
          "name": "",
          "type": "bytes"
        }
      ],
      "stateMutability": "pure",
      "type": "function"
    },
    {
      "inputs": [
        {
          "internalType": "uint8",
          "name": "utype",
          "type": "uint8"
        },
        {
          "internalType": "bytes",
          "name": "lhsHash",
          "type": "bytes"
        },
        {
          "internalType": "bytes",
          "name": "rhsHash",
          "type": "bytes"
        }
      ],
      "name": "and",
      "outputs": [
        {
          "internalType": "bytes",
          "name": "",
          "type": "bytes"
        }
      ],
      "stateMutability": "pure",
      "type": "function"
    },
    {
      "inputs": [
        {
          "internalType": "bool",
          "name": "value",
          "type": "bool"
        }
      ],
      "name": "boolToBytes",
      "outputs": [
        {
          "internalType": "bytes",
          "name": "",
          "type": "bytes"
        }
      ],
      "stateMutability": "pure",
      "type": "function"
    },
    {
      "inputs": [
        {
          "internalType": "uint8",
          "name": "",
          "type": "uint8"
        },
        {
          "internalType": "bytes",
          "name": "input",
          "type": "bytes"
        },
        {
          "internalType": "uint8",
          "name": "toType",
          "type": "uint8"
        }
      ],
      "name": "cast",
      "outputs": [
        {
          "internalType": "bytes",
          "name": "",
          "type": "bytes"
        }
      ],
      "stateMutability": "pure",
      "type": "function"
    },
    {
      "inputs": [
        {
          "internalType": "uint8",
          "name": "",
          "type": "uint8"
        },
        {
          "internalType": "bytes",
          "name": "input",
          "type": "bytes"
        },
        {
          "internalType": "uint256",
          "name": "",
          "type": "uint256"
        }
      ],
      "name": "decrypt",
      "outputs": [
        {
          "internalType": "uint256",
          "name": "",
          "type": "uint256"
        }
      ],
      "stateMutability": "pure",
      "type": "function"
    },
    {
      "inputs": [
        {
          "internalType": "uint8",
          "name": "utype",
          "type": "uint8"
        },
        {
          "internalType": "bytes",
          "name": "lhsHash",
          "type": "bytes"
        },
        {
          "internalType": "bytes",
          "name": "rhsHash",
          "type": "bytes"
        }
      ],
      "name": "div",
      "outputs": [
        {
          "internalType": "bytes",
          "name": "",
          "type": "bytes"
        }
      ],
      "stateMutability": "pure",
      "type": "function"
    },
    {
      "inputs": [
        {
          "internalType": "uint8",
          "name": "utype",
          "type": "uint8"
        },
        {
          "internalType": "bytes",
          "name": "lhsHash",
          "type": "bytes"
        },
        {
          "internalType": "bytes",
          "name": "rhsHash",
          "type": "bytes"
        }
      ],
      "name": "eq",
      "outputs": [
        {
          "internalType": "bytes",
          "name": "",
          "type": "bytes"
        }
      ],
      "stateMutability": "pure",
      "type": "function"
    },
    {
      "inputs": [
        {
          "internalType": "int32",
          "name": "",
          "type": "int32"
        }
      ],
      "name": "getNetworkPublicKey",
      "outputs": [
        {
          "internalType": "bytes",
          "name": "",
          "type": "bytes"
        }
      ],
      "stateMutability": "pure",
      "type": "function"
    },
    {
      "inputs": [
        {
          "internalType": "uint8",
          "name": "utype",
          "type": "uint8"
        },
        {
          "internalType": "bytes",
          "name": "lhsHash",
          "type": "bytes"
        },
        {
          "internalType": "bytes",
          "name": "rhsHash",
          "type": "bytes"
        }
      ],
      "name": "gt",
      "outputs": [
        {
          "internalType": "bytes",
          "name": "",
          "type": "bytes"
        }
      ],
      "stateMutability": "pure",
      "type": "function"
    },
    {
      "inputs": [
        {
          "internalType": "uint8",
          "name": "utype",
          "type": "uint8"
        },
        {
          "internalType": "bytes",
          "name": "lhsHash",
          "type": "bytes"
        },
        {
          "internalType": "bytes",
          "name": "rhsHash",
          "type": "bytes"
        }
      ],
      "name": "gte",
      "outputs": [
        {
          "internalType": "bytes",
          "name": "",
          "type": "bytes"
        }
      ],
      "stateMutability": "pure",
      "type": "function"
    },
    {
      "inputs": [
        {
          "internalType": "string",
          "name": "s",
          "type": "string"
        }
      ],
      "name": "log",
      "outputs": [],
      "stateMutability": "pure",
      "type": "function"
    },
    {
      "inputs": [
        {
          "internalType": "uint8",
          "name": "utype",
          "type": "uint8"
        },
        {
          "internalType": "bytes",
          "name": "lhsHash",
          "type": "bytes"
        },
        {
          "internalType": "bytes",
          "name": "rhsHash",
          "type": "bytes"
        }
      ],
      "name": "lt",
      "outputs": [
        {
          "internalType": "bytes",
          "name": "",
          "type": "bytes"
        }
      ],
      "stateMutability": "pure",
      "type": "function"
    },
    {
      "inputs": [
        {
          "internalType": "uint8",
          "name": "utype",
          "type": "uint8"
        },
        {
          "internalType": "bytes",
          "name": "lhsHash",
          "type": "bytes"
        },
        {
          "internalType": "bytes",
          "name": "rhsHash",
          "type": "bytes"
        }
      ],
      "name": "lte",
      "outputs": [
        {
          "internalType": "bytes",
          "name": "",
          "type": "bytes"
        }
      ],
      "stateMutability": "pure",
      "type": "function"
    },
    {
      "inputs": [
        {
          "internalType": "uint8",
          "name": "utype",
          "type": "uint8"
        },
        {
          "internalType": "bytes",
          "name": "lhsHash",
          "type": "bytes"
        },
        {
          "internalType": "bytes",
          "name": "rhsHash",
          "type": "bytes"
        }
      ],
      "name": "max",
      "outputs": [
        {
          "internalType": "bytes",
          "name": "",
          "type": "bytes"
        }
      ],
      "stateMutability": "pure",
      "type": "function"
    },
    {
      "inputs": [
        {
          "internalType": "uint8",
          "name": "utype",
          "type": "uint8"
        }
      ],
      "name": "maxValue",
      "outputs": [
        {
          "internalType": "uint256",
          "name": "",
          "type": "uint256"
        }
      ],
      "stateMutability": "pure",
      "type": "function"
    },
    {
      "inputs": [
        {
          "internalType": "uint8",
          "name": "utype",
          "type": "uint8"
        },
        {
          "internalType": "bytes",
          "name": "lhsHash",
          "type": "bytes"
        },
        {
          "internalType": "bytes",
          "name": "rhsHash",
          "type": "bytes"
        }
      ],
      "name": "min",
      "outputs": [
        {
          "internalType": "bytes",
          "name": "",
          "type": "bytes"
        }
      ],
      "stateMutability": "pure",
      "type": "function"
    },
    {
      "inputs": [
        {
          "internalType": "uint8",
          "name": "utype",
          "type": "uint8"
        },
        {
          "internalType": "bytes",
          "name": "lhsHash",
          "type": "bytes"
        },
        {
          "internalType": "bytes",
          "name": "rhsHash",
          "type": "bytes"
        }
      ],
      "name": "mul",
      "outputs": [
        {
          "internalType": "bytes",
          "name": "",
          "type": "bytes"
        }
      ],
      "stateMutability": "pure",
      "type": "function"
    },
    {
      "inputs": [
        {
          "internalType": "uint8",
          "name": "utype",
          "type": "uint8"
        },
        {
          "internalType": "bytes",
          "name": "lhsHash",
          "type": "bytes"
        },
        {
          "internalType": "bytes",
          "name": "rhsHash",
          "type": "bytes"
        }
      ],
      "name": "ne",
      "outputs": [
        {
          "internalType": "bytes",
          "name": "",
          "type": "bytes"
        }
      ],
      "stateMutability": "pure",
      "type": "function"
    },
    {
      "inputs": [
        {
          "internalType": "uint8",
          "name": "utype",
          "type": "uint8"
        },
        {
          "internalType": "bytes",
          "name": "value",
          "type": "bytes"
        }
      ],
      "name": "not",
      "outputs": [
        {
          "internalType": "bytes",
          "name": "",
          "type": "bytes"
        }
      ],
      "stateMutability": "pure",
      "type": "function"
    },
    {
      "inputs": [
        {
          "internalType": "uint8",
          "name": "utype",
          "type": "uint8"
        },
        {
          "internalType": "bytes",
          "name": "lhsHash",
          "type": "bytes"
        },
        {
          "internalType": "bytes",
          "name": "rhsHash",
          "type": "bytes"
        }
      ],
      "name": "or",
      "outputs": [
        {
          "internalType": "bytes",
          "name": "",
          "type": "bytes"
        }
      ],
      "stateMutability": "pure",
      "type": "function"
    },
    {
      "inputs": [
        {
          "internalType": "uint8",
          "name": "utype",
          "type": "uint8"
        },
        {
          "internalType": "uint64",
          "name": "",
          "type": "uint64"
        },
        {
          "internalType": "int32",
          "name": "",
          "type": "int32"
        }
      ],
      "name": "random",
      "outputs": [
        {
          "internalType": "bytes",
          "name": "",
          "type": "bytes"
        }
      ],
      "stateMutability": "view",
      "type": "function"
    },
    {
      "inputs": [
        {
          "internalType": "uint8",
          "name": "utype",
          "type": "uint8"
        },
        {
          "internalType": "bytes",
          "name": "lhsHash",
          "type": "bytes"
        },
        {
          "internalType": "bytes",
          "name": "rhsHash",
          "type": "bytes"
        }
      ],
      "name": "rem",
      "outputs": [
        {
          "internalType": "bytes",
          "name": "",
          "type": "bytes"
        }
      ],
      "stateMutability": "pure",
      "type": "function"
    },
    {
      "inputs": [
        {
          "internalType": "uint8",
          "name": "",
          "type": "uint8"
        },
        {
          "internalType": "bytes",
          "name": "input",
          "type": "bytes"
        }
      ],
      "name": "req",
      "outputs": [
        {
          "internalType": "bytes",
          "name": "",
          "type": "bytes"
        }
      ],
      "stateMutability": "pure",
      "type": "function"
    },
    {
      "inputs": [
        {
          "internalType": "uint8",
          "name": "",
          "type": "uint8"
        },
        {
          "internalType": "bytes",
          "name": "ctHash",
          "type": "bytes"
        },
        {
          "internalType": "bytes",
          "name": "",
          "type": "bytes"
        }
      ],
      "name": "sealOutput",
      "outputs": [
        {
          "internalType": "string",
          "name": "",
          "type": "string"
        }
      ],
      "stateMutability": "pure",
      "type": "function"
    },
    {
      "inputs": [
        {
          "internalType": "uint8",
          "name": "",
          "type": "uint8"
        },
        {
          "internalType": "bytes",
          "name": "controlHash",
          "type": "bytes"
        },
        {
          "internalType": "bytes",
          "name": "ifTrueHash",
          "type": "bytes"
        },
        {
          "internalType": "bytes",
          "name": "ifFalseHash",
          "type": "bytes"
        }
      ],
      "name": "select",
      "outputs": [
        {
          "internalType": "bytes",
          "name": "",
          "type": "bytes"
        }
      ],
      "stateMutability": "pure",
      "type": "function"
    },
    {
      "inputs": [
        {
          "internalType": "uint8",
          "name": "",
          "type": "uint8"
        },
        {
          "internalType": "bytes",
          "name": "lhsHash",
          "type": "bytes"
        },
        {
          "internalType": "bytes",
          "name": "rhsHash",
          "type": "bytes"
        }
      ],
      "name": "shl",
      "outputs": [
        {
          "internalType": "bytes",
          "name": "",
          "type": "bytes"
        }
      ],
      "stateMutability": "pure",
      "type": "function"
    },
    {
      "inputs": [
        {
          "internalType": "uint8",
          "name": "",
          "type": "uint8"
        },
        {
          "internalType": "bytes",
          "name": "lhsHash",
          "type": "bytes"
        },
        {
          "internalType": "bytes",
          "name": "rhsHash",
          "type": "bytes"
        }
      ],
      "name": "shr",
      "outputs": [
        {
          "internalType": "bytes",
          "name": "",
          "type": "bytes"
        }
      ],
      "stateMutability": "pure",
      "type": "function"
    },
    {
      "inputs": [
        {
          "internalType": "uint8",
          "name": "utype",
          "type": "uint8"
        },
        {
          "internalType": "bytes",
          "name": "lhsHash",
          "type": "bytes"
        },
        {
          "internalType": "bytes",
          "name": "rhsHash",
          "type": "bytes"
        }
      ],
      "name": "sub",
      "outputs": [
        {
          "internalType": "bytes",
          "name": "",
          "type": "bytes"
        }
      ],
      "stateMutability": "pure",
      "type": "function"
    },
    {
      "inputs": [
        {
          "internalType": "bytes",
          "name": "input",
          "type": "bytes"
        },
        {
          "internalType": "uint8",
          "name": "toType",
          "type": "uint8"
        },
        {
          "internalType": "int32",
          "name": "",
          "type": "int32"
        }
      ],
      "name": "trivialEncrypt",
      "outputs": [
        {
          "internalType": "bytes",
          "name": "",
          "type": "bytes"
        }
      ],
      "stateMutability": "pure",
      "type": "function"
    },
    {
      "inputs": [
        {
          "internalType": "uint256",
          "name": "value",
          "type": "uint256"
        }
      ],
      "name": "uint256ToBytes",
      "outputs": [
        {
          "internalType": "bytes",
          "name": "",
          "type": "bytes"
        }
      ],
      "stateMutability": "pure",
      "type": "function"
    },
    {
      "inputs": [
        {
          "internalType": "uint8",
          "name": "",
          "type": "uint8"
        },
        {
          "internalType": "bytes",
          "name": "input",
          "type": "bytes"
        },
        {
          "internalType": "int32",
          "name": "",
          "type": "int32"
        }
      ],
      "name": "verify",
      "outputs": [
        {
          "internalType": "bytes",
          "name": "",
          "type": "bytes"
        }
      ],
      "stateMutability": "pure",
      "type": "function"
    },
    {
      "inputs": [
        {
          "internalType": "uint8",
          "name": "utype",
          "type": "uint8"
        },
        {
          "internalType": "bytes",
          "name": "lhsHash",
          "type": "bytes"
        },
        {
          "internalType": "bytes",
          "name": "rhsHash",
          "type": "bytes"
        }
      ],
      "name": "xor",
      "outputs": [
        {
          "internalType": "bytes",
          "name": "",
          "type": "bytes"
        }
      ],
      "stateMutability": "pure",
      "type": "function"
    }
  ],
  "bytecode": "0x608060405234801561000f575f80fd5b50611f6f8061001d5f395ff3fe608060405234801561000f575f80fd5b50600436106101ed575f3560e01c8063874b1c101161010d578063b9c7a54b116100a0578063cc2cbeff1161006f578063cc2cbeff1461071d578063d260d9ab1461074d578063eb274b771461077d578063eb376804146107ad576101ed565b8063b9c7a54b1461065d578063ba19ac281461068d578063c2d96952146106bd578063c7559da4146106ed576101ed565b8063aa626e8a116100dc578063aa626e8a1461059d578063ae104cfd146105cd578063ae42450a146105fd578063b8fa10431461062d576101ed565b8063874b1c10146104dd57806392348b341461050d5780639944d12d1461053d578063a1848ff31461056d576101ed565b80634a5a111711610185578063650de1cf11610154578063650de1cf1461041d57806372d456f51461044d5780637c4697ab1461047d5780637d23f1db146104ad576101ed565b80634a5a11171461035d5780635211c6791461038d57806355e5e6c5146103bd5780635e639f19146103ed576101ed565b80631f4cda2f116101c15780631f4cda2f146102b157806321b50ba3146102e157806341304fac146103115780634284f7651461032d576101ed565b80622df619146101f15780630b80518e1461022157806313c0c9ae146102515780631b1b484e14610281575b5f80fd5b61020b600480360381019061020691906113ec565b6107dd565b60405161021891906114ee565b60405180910390f35b61023b600480360381019061023691906113ec565b610824565b60405161024891906114ee565b60405180910390f35b61026b600480360381019061026691906113ec565b610884565b60405161027891906114ee565b60405180910390f35b61029b60048036038101906102969190611544565b6108d6565b6040516102a891906114ee565b60405180910390f35b6102cb60048036038101906102c691906113ec565b6108fd565b6040516102d891906114ee565b60405180910390f35b6102fb60048036038101906102f6919061156f565b610944565b60405161030891906114ee565b60405180910390f35b61032b60048036038101906103269190611679565b610950565b005b610347600480360381019061034291906113ec565b610953565b60405161035491906114ee565b60405180910390f35b610377600480360381019061037291906116c0565b61099a565b60405161038491906114ee565b60405180910390f35b6103a760048036038101906103a291906113ec565b6109bd565b6040516103b491906114ee565b60405180910390f35b6103d760048036038101906103d2919061172c565b610a1d565b6040516103e4919061176f565b60405180910390f35b610407600480360381019061040291906113ec565b610b8d565b60405161041491906114ee565b60405180910390f35b610437600480360381019061043291906113ec565b610bbb565b60405161044491906114ee565b60405180910390f35b610467600480360381019061046291906113ec565b610c0d565b60405161047491906114ee565b60405180910390f35b610497600480360381019061049291906117b2565b610c3b565b6040516104a4919061176f565b60405180910390f35b6104c760048036038101906104c2919061181e565b610c53565b6040516104d491906114ee565b60405180910390f35b6104f760048036038101906104f291906113ec565b610c5e565b60405161050491906114ee565b60405180910390f35b610527600480360381019061052291906113ec565b610caf565b60405161053491906114ee565b60405180910390f35b610557600480360381019061055291906113ec565b610d00565b60405161056491906114ee565b60405180910390f35b610587600480360381019061058291906113ec565b610d36565b60405161059491906118ca565b60405180910390f35b6105b760048036038101906105b29190611927565b610d42565b6040516105c491906114ee565b60405180910390f35b6105e760048036038101906105e291906113ec565b610d91565b6040516105f491906114ee565b60405180910390f35b610617600480360381019061061291906113ec565b610dbf565b60405161062491906114ee565b60405180910390f35b610647600480360381019061064291906119ac565b610df5565b60405161065491906114ee565b60405180910390f35b610677600480360381019061067291906113ec565b610ee8565b60405161068491906114ee565b60405180910390f35b6106a760048036038101906106a291906119d7565b610f39565b6040516106b491906114ee565b60405180910390f35b6106d760048036038101906106d29190611a43565b610f5c565b6040516106e491906114ee565b60405180910390f35b61070760048036038101906107029190611afb565b610f86565b60405161071491906114ee565b60405180910390f35b610737600480360381019061073291906113ec565b610fe8565b60405161074491906114ee565b60405180910390f35b6107676004803603810190610762919061181e565b61102f565b60405161077491906114ee565b60405180910390f35b610797600480360381019061079291906113ec565b611052565b6040516107a491906114ee565b60405180910390f35b6107c760048036038101906107c291906113ec565b6110a4565b6040516107d491906114ee565b60405180910390f35b60605f6107e985610a1d565b6107f2846110eb565b6107fb866110eb565b6108059190611b53565b61080f9190611bb3565b905061081a81610f86565b9150509392505050565b60605f61083085610a1d565b610839846110eb565b6108439190611bb3565b61084c86610a1d565b610855866110eb565b61085f9190611bb3565b101590506001151581151503610878578391505061087d565b829150505b9392505050565b60605f61089085610a1d565b610899846110eb565b6108a39190611bb3565b6108ac86610a1d565b6108b5866110eb565b6108bf9190611bb3565b141590506108cc81610df5565b9150509392505050565b60605f604051806080016040528060418152602001611ef960419139905080915050919050565b60605f61090985610a1d565b610912846110eb565b61091b866110eb565b6109259190611be3565b61092f9190611bb3565b905061093a81610f86565b9150509392505050565b60608290509392505050565b50565b60605f61095f85610a1d565b610968846110eb565b610971866110eb565b61097b9190611c13565b6109859190611bb3565b905061099081610f86565b9150509392505050565b60605f836109a790611c8c565b90506109b381846111c6565b9150509392505050565b60605f6109c985610a1d565b6109d2846110eb565b6109dc9190611bb3565b6109e586610a1d565b6109ee866110eb565b6109f89190611bb3565b101590506001151581151503610a115782915050610a16565b839150505b9392505050565b5f805f90505f8360ff1603610a4357600160ff8016610a3c9190611b53565b9050610b84565b60018360ff1603610a6657600161ffff8016610a5f9190611b53565b9050610b83565b60028360ff1603610a8b57600163ffffffff8016610a849190611b53565b9050610b82565b60038360ff1603610ab457600167ffffffffffffffff8016610aad9190611b53565b9050610b81565b60048360ff1603610ae55760016fffffffffffffffffffffffffffffffff8016610ade9190611b53565b9050610b80565b60058360ff1603610af95760019050610b7f565b600c8360ff1603610b2e57600173ffffffffffffffffffffffffffffffffffffffff8016610b279190611b53565b9050610b7e565b600d8360ff1603610b425760019050610b7d565b6040517f08c379a0000000000000000000000000000000000000000000000000000000008152600401610b7490611d3c565b60405180910390fd5b5b5b5b5b5b5b5b80915050919050565b60605f82610b9a90611c8c565b84610ba490611c8c565b189050610bb181866111c6565b9150509392505050565b60605f610bc785610a1d565b610bd0846110eb565b610bda9190611bb3565b610be386610a1d565b610bec866110eb565b610bf69190611bb3565b10159050610c0381610df5565b9150509392505050565b60605f82610c1a90611c8c565b84610c2490611c8c565b179050610c3181866111c6565b9150509392505050565b5f80610c46846110eb565b9050809150509392505050565b606081905092915050565b60605f610c6a85610a1d565b610c73846110eb565b610c7d9190611bb3565b610c8686610a1d565b610c8f866110eb565b610c999190611bb3565b119050610ca581610df5565b9150509392505050565b60605f610cbb85610a1d565b610cc4846110eb565b610cce9190611bb3565b610cd786610a1d565b610ce0866110eb565b610cea9190611bb3565b149050610cf681610df5565b9150509392505050565b60605f610d0c846110eb565b90505f610d18846110eb565b90505f8183901c9050610d2a81610f86565b93505050509392505050565b60608290509392505050565b6060610d88610d5085610a1d565b42604051602001610d61919061176f565b604051602081830303815290604052805190602001205f1c610d839190611bb3565b610f86565b90509392505050565b60605f82610d9e90611c8c565b84610da890611c8c565b169050610db581866111c6565b9150509392505050565b60605f610dcb846110eb565b90505f610dd7846110eb565b90505f8183901b9050610de981610f86565b93505050509392505050565b60605f600167ffffffffffffffff811115610e1357610e126112c8565b5b6040519080825280601f01601f191660200182016040528015610e455781602001600182028036833780820191505090505b5090508215610e9957600160f81b815f81518110610e6657610e65611d5a565b5b60200101907effffffffffffffffffffffffffffffffffffffffffffffffffffffffffffff191690815f1a905350610edf565b5f60f81b815f81518110610eb057610eaf611d5a565b5b60200101907effffffffffffffffffffffffffffffffffffffffffffffffffffffffffffff191690815f1a9053505b80915050919050565b60605f610ef485610a1d565b610efd846110eb565b610f079190611bb3565b610f1086610a1d565b610f19866110eb565b610f239190611bb3565b109050610f2f81610df5565b9150509392505050565b60605f84610f4690611c8c565b9050610f5281856111c6565b9150509392505050565b60605f610f68856111f0565b90508015610f795783915050610f7e565b829150505b949350505050565b60605f602067ffffffffffffffff811115610fa457610fa36112c8565b5b6040519080825280601f01601f191660200182016040528015610fd65781602001600182028036833780820191505090505b50905082602082015280915050919050565b60605f610ff485610a1d565b610ffd846110eb565b611006866110eb565b6110109190611d87565b61101a9190611bb3565b905061102581610f86565b9150509392505050565b60605f8261103c90611c8c565b19905061104981856111c6565b91505092915050565b60605f61105e85610a1d565b611067846110eb565b6110719190611bb3565b61107a86610a1d565b611083866110eb565b61108d9190611bb3565b1115905061109a81610df5565b9150509392505050565b60605f6110b085610a1d565b6110b9846110eb565b6110c2866110eb565b6110cc9190611bb3565b6110d69190611bb3565b90506110e181610f86565b9150509392505050565b5f602082511115611131576040517f08c379a000000000000000000000000000000000000000000000000000000000815260040161112890611e04565b60405180910390fd5b8151602061113f9190611d87565b67ffffffffffffffff811115611158576111576112c8565b5b6040519080825280601f01601f19166020018201604052801561118a5781602001600182028036833780820191505090505b508260405160200161119d929190611e5c565b6040516020818303038152906040528060200190518101906111bf9190611e93565b9050919050565b6060826040516020016111d99190611ede565b604051602081830303815290604052905092915050565b5f602082511115611236576040517f08c379a000000000000000000000000000000000000000000000000000000000815260040161122d90611e04565b60405180910390fd5b5f825f8151811061124a57611249611d5a565b5b602001015160f81c60f81b60f81c90505f8160ff161415915050919050565b5f604051905090565b5f80fd5b5f80fd5b5f60ff82169050919050565b61128f8161127a565b8114611299575f80fd5b50565b5f813590506112aa81611286565b92915050565b5f80fd5b5f80fd5b5f601f19601f8301169050919050565b7f4e487b71000000000000000000000000000000000000000000000000000000005f52604160045260245ffd5b6112fe826112b8565b810181811067ffffffffffffffff8211171561131d5761131c6112c8565b5b80604052505050565b5f61132f611269565b905061133b82826112f5565b919050565b5f67ffffffffffffffff82111561135a576113596112c8565b5b611363826112b8565b9050602081019050919050565b828183375f83830152505050565b5f61139061138b84611340565b611326565b9050828152602081018484840111156113ac576113ab6112b4565b5b6113b7848285611370565b509392505050565b5f82601f8301126113d3576113d26112b0565b5b81356113e384826020860161137e565b91505092915050565b5f805f6060848603121561140357611402611272565b5b5f6114108682870161129c565b935050602084013567ffffffffffffffff81111561143157611430611276565b5b61143d868287016113bf565b925050604084013567ffffffffffffffff81111561145e5761145d611276565b5b61146a868287016113bf565b9150509250925092565b5f81519050919050565b5f82825260208201905092915050565b5f5b838110156114ab578082015181840152602081019050611490565b5f8484015250505050565b5f6114c082611474565b6114ca818561147e565b93506114da81856020860161148e565b6114e3816112b8565b840191505092915050565b5f6020820190508181035f83015261150681846114b6565b905092915050565b5f8160030b9050919050565b6115238161150e565b811461152d575f80fd5b50565b5f8135905061153e8161151a565b92915050565b5f6020828403121561155957611558611272565b5b5f61156684828501611530565b91505092915050565b5f805f6060848603121561158657611585611272565b5b5f6115938682870161129c565b935050602084013567ffffffffffffffff8111156115b4576115b3611276565b5b6115c0868287016113bf565b92505060406115d186828701611530565b9150509250925092565b5f67ffffffffffffffff8211156115f5576115f46112c8565b5b6115fe826112b8565b9050602081019050919050565b5f61161d611618846115db565b611326565b905082815260208101848484011115611639576116386112b4565b5b611644848285611370565b509392505050565b5f82601f8301126116605761165f6112b0565b5b813561167084826020860161160b565b91505092915050565b5f6020828403121561168e5761168d611272565b5b5f82013567ffffffffffffffff8111156116ab576116aa611276565b5b6116b78482850161164c565b91505092915050565b5f805f606084860312156116d7576116d6611272565b5b5f6116e48682870161129c565b935050602084013567ffffffffffffffff81111561170557611704611276565b5b611711868287016113bf565b92505060406117228682870161129c565b9150509250925092565b5f6020828403121561174157611740611272565b5b5f61174e8482850161129c565b91505092915050565b5f819050919050565b61176981611757565b82525050565b5f6020820190506117825f830184611760565b92915050565b61179181611757565b811461179b575f80fd5b50565b5f813590506117ac81611788565b92915050565b5f805f606084860312156117c9576117c8611272565b5b5f6117d68682870161129c565b935050602084013567ffffffffffffffff8111156117f7576117f6611276565b5b611803868287016113bf565b92505060406118148682870161179e565b9150509250925092565b5f806040838503121561183457611833611272565b5b5f6118418582860161129c565b925050602083013567ffffffffffffffff81111561186257611861611276565b5b61186e858286016113bf565b9150509250929050565b5f81519050919050565b5f82825260208201905092915050565b5f61189c82611878565b6118a68185611882565b93506118b681856020860161148e565b6118bf816112b8565b840191505092915050565b5f6020820190508181035f8301526118e28184611892565b905092915050565b5f67ffffffffffffffff82169050919050565b611906816118ea565b8114611910575f80fd5b50565b5f81359050611921816118fd565b92915050565b5f805f6060848603121561193e5761193d611272565b5b5f61194b8682870161129c565b935050602061195c86828701611913565b925050604061196d86828701611530565b9150509250925092565b5f8115159050919050565b61198b81611977565b8114611995575f80fd5b50565b5f813590506119a681611982565b92915050565b5f602082840312156119c1576119c0611272565b5b5f6119ce84828501611998565b91505092915050565b5f805f606084860312156119ee576119ed611272565b5b5f84013567ffffffffffffffff811115611a0b57611a0a611276565b5b611a17868287016113bf565b9350506020611a288682870161129c565b9250506040611a3986828701611530565b9150509250925092565b5f805f8060808587031215611a5b57611a5a611272565b5b5f611a688782880161129c565b945050602085013567ffffffffffffffff811115611a8957611a88611276565b5b611a95878288016113bf565b935050604085013567ffffffffffffffff811115611ab657611ab5611276565b5b611ac2878288016113bf565b925050606085013567ffffffffffffffff811115611ae357611ae2611276565b5b611aef878288016113bf565b91505092959194509250565b5f60208284031215611b1057611b0f611272565b5b5f611b1d8482850161179e565b91505092915050565b7f4e487b71000000000000000000000000000000000000000000000000000000005f52601160045260245ffd5b5f611b5d82611757565b9150611b6883611757565b9250828201905080821115611b8057611b7f611b26565b5b92915050565b7f4e487b71000000000000000000000000000000000000000000000000000000005f52601260045260245ffd5b5f611bbd82611757565b9150611bc883611757565b925082611bd857611bd7611b86565b5b828206905092915050565b5f611bed82611757565b9150611bf883611757565b925082611c0857611c07611b86565b5b828204905092915050565b5f611c1d82611757565b9150611c2883611757565b9250828202611c3681611757565b91508282048414831517611c4d57611c4c611b26565b5b5092915050565b5f819050602082019050919050565b5f819050919050565b5f611c778251611c63565b80915050919050565b5f82821b905092915050565b5f611c9682611474565b82611ca084611c54565b9050611cab81611c6c565b92506020821015611ceb57611ce67fffffffffffffffffffffffffffffffffffffffffffffffffffffffffffffffff83602003600802611c80565b831692505b5050919050565b7f556e737570706f727465642074797065000000000000000000000000000000005f82015250565b5f611d26601083611882565b9150611d3182611cf2565b602082019050919050565b5f6020820190508181035f830152611d5381611d1a565b9050919050565b7f4e487b71000000000000000000000000000000000000000000000000000000005f52603260045260245ffd5b5f611d9182611757565b9150611d9c83611757565b9250828203905081811115611db457611db3611b26565b5b92915050565b7f4279746573206c656e67746820657863656564732033322e00000000000000005f82015250565b5f611dee601883611882565b9150611df982611dba565b602082019050919050565b5f6020820190508181035f830152611e1b81611de2565b9050919050565b5f81905092915050565b5f611e3682611474565b611e408185611e22565b9350611e5081856020860161148e565b80840191505092915050565b5f611e678285611e2c565b9150611e738284611e2c565b91508190509392505050565b5f81519050611e8d81611788565b92915050565b5f60208284031215611ea857611ea7611272565b5b5f611eb584828501611e7f565b91505092915050565b5f819050919050565b611ed8611ed382611c63565b611ebe565b82525050565b5f611ee98284611ec7565b6020820191508190509291505056fe28282d282d5f282d5f2d295f2d292d292920596f75277665207374657070656420696e746f207468652077726f6e67206e65696768626f72686f6f642070616c2ea2646970667358221220fd63dfcfe9c1c526ef18a61338e9a3210f94a6ba38297ac89d97edaf10f84afb64736f6c63430008140033",
  "linkReferences": {},
  "deployedLinkReferences": {}
}