{
  "_format": "hh-sol-artifact-1",
  "contractName": "MockFheOps",
  "sourceName": "contracts/MockFheOps.sol",
  "abi": [
    {
      "inputs": [
        {
          "internalType": "uint8",
          "name": "utype",
          "type": "uint8"
        },
        {
          "internalType": "bytes",
          "name": "lhsHash",
          "type": "bytes"
        },
        {
          "internalType": "bytes",
          "name": "rhsHash",
          "type": "bytes"
        }
      ],
      "name": "add",
      "outputs": [
        {
          "internalType": "bytes",
          "name": "",
          "type": "bytes"
        }
      ],
      "stateMutability": "pure",
      "type": "function"
    },
    {
      "inputs": [
        {
          "internalType": "uint8",
          "name": "utype",
          "type": "uint8"
        },
        {
          "internalType": "bytes",
          "name": "lhsHash",
          "type": "bytes"
        },
        {
          "internalType": "bytes",
          "name": "rhsHash",
          "type": "bytes"
        }
      ],
      "name": "and",
      "outputs": [
        {
          "internalType": "bytes",
          "name": "",
          "type": "bytes"
        }
      ],
      "stateMutability": "pure",
      "type": "function"
    },
    {
      "inputs": [
        {
          "internalType": "bool",
          "name": "value",
          "type": "bool"
        }
      ],
      "name": "boolToBytes",
      "outputs": [
        {
          "internalType": "bytes",
          "name": "",
          "type": "bytes"
        }
      ],
      "stateMutability": "pure",
      "type": "function"
    },
    {
      "inputs": [
        {
          "internalType": "uint8",
          "name": "",
          "type": "uint8"
        },
        {
          "internalType": "bytes",
          "name": "input",
          "type": "bytes"
        },
        {
          "internalType": "uint8",
          "name": "toType",
          "type": "uint8"
        }
      ],
      "name": "cast",
      "outputs": [
        {
          "internalType": "bytes",
          "name": "",
          "type": "bytes"
        }
      ],
      "stateMutability": "pure",
      "type": "function"
    },
    {
      "inputs": [
        {
          "internalType": "uint8",
          "name": "",
          "type": "uint8"
        },
        {
          "internalType": "bytes",
          "name": "input",
          "type": "bytes"
        }
      ],
      "name": "decrypt",
      "outputs": [
        {
          "internalType": "uint256",
          "name": "",
          "type": "uint256"
        }
      ],
      "stateMutability": "pure",
      "type": "function"
    },
    {
      "inputs": [
        {
          "internalType": "uint8",
          "name": "utype",
          "type": "uint8"
        },
        {
          "internalType": "bytes",
          "name": "lhsHash",
          "type": "bytes"
        },
        {
          "internalType": "bytes",
          "name": "rhsHash",
          "type": "bytes"
        }
      ],
      "name": "div",
      "outputs": [
        {
          "internalType": "bytes",
          "name": "",
          "type": "bytes"
        }
      ],
      "stateMutability": "pure",
      "type": "function"
    },
    {
      "inputs": [
        {
          "internalType": "uint8",
          "name": "utype",
          "type": "uint8"
        },
        {
          "internalType": "bytes",
          "name": "lhsHash",
          "type": "bytes"
        },
        {
          "internalType": "bytes",
          "name": "rhsHash",
          "type": "bytes"
        }
      ],
      "name": "eq",
      "outputs": [
        {
          "internalType": "bytes",
          "name": "",
          "type": "bytes"
        }
      ],
      "stateMutability": "pure",
      "type": "function"
    },
    {
      "inputs": [],
      "name": "getNetworkPublicKey",
      "outputs": [
        {
          "internalType": "bytes",
          "name": "",
          "type": "bytes"
        }
      ],
      "stateMutability": "pure",
      "type": "function"
    },
    {
      "inputs": [
        {
          "internalType": "uint8",
          "name": "utype",
          "type": "uint8"
        },
        {
          "internalType": "bytes",
          "name": "lhsHash",
          "type": "bytes"
        },
        {
          "internalType": "bytes",
          "name": "rhsHash",
          "type": "bytes"
        }
      ],
      "name": "gt",
      "outputs": [
        {
          "internalType": "bytes",
          "name": "",
          "type": "bytes"
        }
      ],
      "stateMutability": "pure",
      "type": "function"
    },
    {
      "inputs": [
        {
          "internalType": "uint8",
          "name": "utype",
          "type": "uint8"
        },
        {
          "internalType": "bytes",
          "name": "lhsHash",
          "type": "bytes"
        },
        {
          "internalType": "bytes",
          "name": "rhsHash",
          "type": "bytes"
        }
      ],
      "name": "gte",
      "outputs": [
        {
          "internalType": "bytes",
          "name": "",
          "type": "bytes"
        }
      ],
      "stateMutability": "pure",
      "type": "function"
    },
    {
      "inputs": [
        {
          "internalType": "string",
          "name": "s",
          "type": "string"
        }
      ],
      "name": "log",
      "outputs": [],
      "stateMutability": "pure",
      "type": "function"
    },
    {
      "inputs": [
        {
          "internalType": "uint8",
          "name": "utype",
          "type": "uint8"
        },
        {
          "internalType": "bytes",
          "name": "lhsHash",
          "type": "bytes"
        },
        {
          "internalType": "bytes",
          "name": "rhsHash",
          "type": "bytes"
        }
      ],
      "name": "lt",
      "outputs": [
        {
          "internalType": "bytes",
          "name": "",
          "type": "bytes"
        }
      ],
      "stateMutability": "pure",
      "type": "function"
    },
    {
      "inputs": [
        {
          "internalType": "uint8",
          "name": "utype",
          "type": "uint8"
        },
        {
          "internalType": "bytes",
          "name": "lhsHash",
          "type": "bytes"
        },
        {
          "internalType": "bytes",
          "name": "rhsHash",
          "type": "bytes"
        }
      ],
      "name": "lte",
      "outputs": [
        {
          "internalType": "bytes",
          "name": "",
          "type": "bytes"
        }
      ],
      "stateMutability": "pure",
      "type": "function"
    },
    {
      "inputs": [
        {
          "internalType": "uint8",
          "name": "utype",
          "type": "uint8"
        },
        {
          "internalType": "bytes",
          "name": "lhsHash",
          "type": "bytes"
        },
        {
          "internalType": "bytes",
          "name": "rhsHash",
          "type": "bytes"
        }
      ],
      "name": "max",
      "outputs": [
        {
          "internalType": "bytes",
          "name": "",
          "type": "bytes"
        }
      ],
      "stateMutability": "pure",
      "type": "function"
    },
    {
      "inputs": [
        {
          "internalType": "uint8",
          "name": "utype",
          "type": "uint8"
        }
      ],
      "name": "maxValue",
      "outputs": [
        {
          "internalType": "uint256",
          "name": "",
          "type": "uint256"
        }
      ],
      "stateMutability": "pure",
      "type": "function"
    },
    {
      "inputs": [
        {
          "internalType": "uint8",
          "name": "utype",
          "type": "uint8"
        },
        {
          "internalType": "bytes",
          "name": "lhsHash",
          "type": "bytes"
        },
        {
          "internalType": "bytes",
          "name": "rhsHash",
          "type": "bytes"
        }
      ],
      "name": "min",
      "outputs": [
        {
          "internalType": "bytes",
          "name": "",
          "type": "bytes"
        }
      ],
      "stateMutability": "pure",
      "type": "function"
    },
    {
      "inputs": [
        {
          "internalType": "uint8",
          "name": "utype",
          "type": "uint8"
        },
        {
          "internalType": "bytes",
          "name": "lhsHash",
          "type": "bytes"
        },
        {
          "internalType": "bytes",
          "name": "rhsHash",
          "type": "bytes"
        }
      ],
      "name": "mul",
      "outputs": [
        {
          "internalType": "bytes",
          "name": "",
          "type": "bytes"
        }
      ],
      "stateMutability": "pure",
      "type": "function"
    },
    {
      "inputs": [
        {
          "internalType": "uint8",
          "name": "utype",
          "type": "uint8"
        },
        {
          "internalType": "bytes",
          "name": "lhsHash",
          "type": "bytes"
        },
        {
          "internalType": "bytes",
          "name": "rhsHash",
          "type": "bytes"
        }
      ],
      "name": "ne",
      "outputs": [
        {
          "internalType": "bytes",
          "name": "",
          "type": "bytes"
        }
      ],
      "stateMutability": "pure",
      "type": "function"
    },
    {
      "inputs": [
        {
          "internalType": "uint8",
          "name": "utype",
          "type": "uint8"
        },
        {
          "internalType": "bytes",
          "name": "value",
          "type": "bytes"
        }
      ],
      "name": "not",
      "outputs": [
        {
          "internalType": "bytes",
          "name": "",
          "type": "bytes"
        }
      ],
      "stateMutability": "pure",
      "type": "function"
    },
    {
      "inputs": [
        {
          "internalType": "uint8",
          "name": "utype",
          "type": "uint8"
        },
        {
          "internalType": "bytes",
          "name": "lhsHash",
          "type": "bytes"
        },
        {
          "internalType": "bytes",
          "name": "rhsHash",
          "type": "bytes"
        }
      ],
      "name": "or",
      "outputs": [
        {
          "internalType": "bytes",
          "name": "",
          "type": "bytes"
        }
      ],
      "stateMutability": "pure",
      "type": "function"
    },
    {
      "inputs": [
        {
          "internalType": "uint8",
          "name": "utype",
          "type": "uint8"
        },
        {
          "internalType": "uint64",
          "name": "",
          "type": "uint64"
        }
      ],
      "name": "random",
      "outputs": [
        {
          "internalType": "bytes",
          "name": "",
          "type": "bytes"
        }
      ],
      "stateMutability": "pure",
      "type": "function"
    },
    {
      "inputs": [
        {
          "internalType": "uint8",
          "name": "utype",
          "type": "uint8"
        },
        {
          "internalType": "bytes",
          "name": "lhsHash",
          "type": "bytes"
        },
        {
          "internalType": "bytes",
          "name": "rhsHash",
          "type": "bytes"
        }
      ],
      "name": "rem",
      "outputs": [
        {
          "internalType": "bytes",
          "name": "",
          "type": "bytes"
        }
      ],
      "stateMutability": "pure",
      "type": "function"
    },
    {
      "inputs": [
        {
          "internalType": "uint8",
          "name": "",
          "type": "uint8"
        },
        {
          "internalType": "bytes",
          "name": "input",
          "type": "bytes"
        }
      ],
      "name": "req",
      "outputs": [
        {
          "internalType": "bytes",
          "name": "",
          "type": "bytes"
        }
      ],
      "stateMutability": "pure",
      "type": "function"
    },
    {
      "inputs": [
        {
          "internalType": "uint8",
          "name": "",
          "type": "uint8"
        },
        {
          "internalType": "bytes",
          "name": "ctHash",
          "type": "bytes"
        },
        {
          "internalType": "bytes",
          "name": "",
          "type": "bytes"
        }
      ],
      "name": "sealOutput",
      "outputs": [
        {
          "internalType": "string",
          "name": "",
          "type": "string"
        }
      ],
      "stateMutability": "pure",
      "type": "function"
    },
    {
      "inputs": [
        {
          "internalType": "uint8",
          "name": "",
          "type": "uint8"
        },
        {
          "internalType": "bytes",
          "name": "controlHash",
          "type": "bytes"
        },
        {
          "internalType": "bytes",
          "name": "ifTrueHash",
          "type": "bytes"
        },
        {
          "internalType": "bytes",
          "name": "ifFalseHash",
          "type": "bytes"
        }
      ],
      "name": "select",
      "outputs": [
        {
          "internalType": "bytes",
          "name": "",
          "type": "bytes"
        }
      ],
      "stateMutability": "pure",
      "type": "function"
    },
    {
      "inputs": [
        {
          "internalType": "uint8",
          "name": "",
          "type": "uint8"
        },
        {
          "internalType": "bytes",
          "name": "lhsHash",
          "type": "bytes"
        },
        {
          "internalType": "bytes",
          "name": "rhsHash",
          "type": "bytes"
        }
      ],
      "name": "shl",
      "outputs": [
        {
          "internalType": "bytes",
          "name": "",
          "type": "bytes"
        }
      ],
      "stateMutability": "pure",
      "type": "function"
    },
    {
      "inputs": [
        {
          "internalType": "uint8",
          "name": "",
          "type": "uint8"
        },
        {
          "internalType": "bytes",
          "name": "lhsHash",
          "type": "bytes"
        },
        {
          "internalType": "bytes",
          "name": "rhsHash",
          "type": "bytes"
        }
      ],
      "name": "shr",
      "outputs": [
        {
          "internalType": "bytes",
          "name": "",
          "type": "bytes"
        }
      ],
      "stateMutability": "pure",
      "type": "function"
    },
    {
      "inputs": [
        {
          "internalType": "uint8",
          "name": "utype",
          "type": "uint8"
        },
        {
          "internalType": "bytes",
          "name": "lhsHash",
          "type": "bytes"
        },
        {
          "internalType": "bytes",
          "name": "rhsHash",
          "type": "bytes"
        }
      ],
      "name": "sub",
      "outputs": [
        {
          "internalType": "bytes",
          "name": "",
          "type": "bytes"
        }
      ],
      "stateMutability": "pure",
      "type": "function"
    },
    {
      "inputs": [
        {
          "internalType": "bytes",
          "name": "input",
          "type": "bytes"
        },
        {
          "internalType": "uint8",
          "name": "toType",
          "type": "uint8"
        }
      ],
      "name": "trivialEncrypt",
      "outputs": [
        {
          "internalType": "bytes",
          "name": "",
          "type": "bytes"
        }
      ],
      "stateMutability": "pure",
      "type": "function"
    },
    {
      "inputs": [
        {
          "internalType": "uint256",
          "name": "value",
          "type": "uint256"
        }
      ],
      "name": "uint256ToBytes",
      "outputs": [
        {
          "internalType": "bytes",
          "name": "",
          "type": "bytes"
        }
      ],
      "stateMutability": "pure",
      "type": "function"
    },
    {
      "inputs": [
        {
          "internalType": "uint8",
          "name": "",
          "type": "uint8"
        },
        {
          "internalType": "bytes",
          "name": "input",
          "type": "bytes"
        }
      ],
      "name": "verify",
      "outputs": [
        {
          "internalType": "bytes",
          "name": "",
          "type": "bytes"
        }
      ],
      "stateMutability": "pure",
      "type": "function"
    },
    {
      "inputs": [
        {
          "internalType": "uint8",
          "name": "utype",
          "type": "uint8"
        },
        {
          "internalType": "bytes",
          "name": "lhsHash",
          "type": "bytes"
        },
        {
          "internalType": "bytes",
          "name": "rhsHash",
          "type": "bytes"
        }
      ],
      "name": "xor",
      "outputs": [
        {
          "internalType": "bytes",
          "name": "",
          "type": "bytes"
        }
      ],
      "stateMutability": "pure",
      "type": "function"
    }
  ],
  "bytecode": "0x608060405234801561001057600080fd5b506121d6806100206000396000f3fe608060405234801561001057600080fd5b50600436106101ef5760003560e01c80637d23f1db1161010f578063b8fa1043116100a2578063cc2cbeff11610071578063cc2cbeff1461070e578063d260d9ab1461073e578063eb274b771461076e578063eb3768041461079e576101ef565b8063b8fa10431461064e578063b9c7a54b1461067e578063c2d96952146106ae578063c7559da4146106de576101ef565b80639944d12d116100de5780639944d12d1461058e578063a1848ff3146105be578063ae104cfd146105ee578063ae42450a1461061e576101ef565b80637d23f1db146104ce578063874b1c10146104fe5780638b7854da1461052e57806392348b341461055e576101ef565b80634a5a1117116101875780635fa55ca7116101565780635fa55ca71461040e578063650de1cf1461043e57806372d456f51461046e57806373cc01541461049e576101ef565b80634a5a11171461034e5780635211c6791461037e57806355e5e6c5146103ae5780635e639f19146103de576101ef565b80631f4cda2f116101c35780631f4cda2f146102b457806341304fac146102e45780634284f7651461030057806344e21dd214610330576101ef565b80622df619146101f45780630b80518e1461022457806313c0c9ae1461025457806319e1c5c414610284575b600080fd5b61020e600480360381019061020991906116b3565b6107ce565b60405161021b91906117bd565b60405180910390f35b61023e600480360381019061023991906116b3565b610816565b60405161024b91906117bd565b60405180910390f35b61026e600480360381019061026991906116b3565b610877565b60405161027b91906117bd565b60405180910390f35b61029e600480360381019061029991906117df565b6108ca565b6040516102ab91906117bd565b60405180910390f35b6102ce60048036038101906102c991906116b3565b6108d5565b6040516102db91906117bd565b60405180910390f35b6102fe60048036038101906102f991906118dc565b61091d565b005b61031a600480360381019061031591906116b3565b610929565b60405161032791906117bd565b60405180910390f35b610338610971565b60405161034591906117bd565b60405180910390f35b61036860048036038101906103639190611925565b610997565b60405161037591906117bd565b60405180910390f35b610398600480360381019061039391906116b3565b6109bb565b6040516103a591906117bd565b60405180910390f35b6103c860048036038101906103c39190611994565b610a1c565b6040516103d591906119da565b60405180910390f35b6103f860048036038101906103f391906116b3565b610be5565b60405161040591906117bd565b60405180910390f35b610428600480360381019061042391906119f5565b610c14565b60405161043591906117bd565b60405180910390f35b610458600480360381019061045391906116b3565b610c1f565b60405161046591906117bd565b60405180910390f35b610488600480360381019061048391906116b3565b610c72565b60405161049591906117bd565b60405180910390f35b6104b860048036038101906104b391906119f5565b610ca1565b6040516104c591906119da565b60405180910390f35b6104e860048036038101906104e391906119f5565b610cb9565b6040516104f591906117bd565b60405180910390f35b610518600480360381019061051391906116b3565b610cc4565b60405161052591906117bd565b60405180910390f35b61054860048036038101906105439190611a91565b610d16565b60405161055591906117bd565b60405180910390f35b610578600480360381019061057391906116b3565b610d31565b60405161058591906117bd565b60405180910390f35b6105a860048036038101906105a391906116b3565b610d83565b6040516105b591906117bd565b60405180910390f35b6105d860048036038101906105d391906116b3565b610dbc565b6040516105e59190611b26565b60405180910390f35b610608600480360381019061060391906116b3565b610dde565b60405161061591906117bd565b60405180910390f35b610638600480360381019061063391906116b3565b610e0d565b60405161064591906117bd565b60405180910390f35b61066860048036038101906106639190611b80565b610e46565b60405161067591906117bd565b60405180910390f35b610698600480360381019061069391906116b3565b610f3f565b6040516106a591906117bd565b60405180910390f35b6106c860048036038101906106c39190611bad565b610f91565b6040516106d591906117bd565b60405180910390f35b6106f860048036038101906106f39190611c94565b610fbc565b60405161070591906117bd565b60405180910390f35b610728600480360381019061072391906116b3565b61101f565b60405161073591906117bd565b60405180910390f35b610758600480360381019061075391906119f5565b611067565b60405161076591906117bd565b60405180910390f35b610788600480360381019061078391906116b3565b61108b565b60405161079591906117bd565b60405180910390f35b6107b860048036038101906107b391906116b3565b6110de565b6040516107c591906117bd565b60405180910390f35b606060006107db85610a1c565b6107e484611126565b6107ed86611126565b6107f79190611cf0565b6108019190611d53565b905061080c81610fbc565b9150509392505050565b6060600061082385610a1c565b61082c84611126565b6108369190611d53565b61083f86610a1c565b61084886611126565b6108529190611d53565b10159050600115158115150361086b5783915050610870565b829150505b9392505050565b6060600061088485610a1c565b61088d84611126565b6108979190611d53565b6108a086610a1c565b6108a986611126565b6108b39190611d53565b141590506108c081610e46565b9150509392505050565b606082905092915050565b606060006108e285610a1c565b6108eb84611126565b6108f486611126565b6108fe9190611d84565b6109089190611d53565b905061091381610fbc565b9150509392505050565b61092681611208565b50565b6060600061093685610a1c565b61093f84611126565b61094886611126565b6109529190611db5565b61095c9190611d53565b905061096781610fbc565b9150509392505050565b606060006040518060800160405280604181526020016121606041913990508091505090565b60606000836109a590611e33565b90506109b181846112a1565b9150509392505050565b606060006109c885610a1c565b6109d184611126565b6109db9190611d53565b6109e486610a1c565b6109ed86611126565b6109f79190611d53565b101590506001151581151503610a105782915050610a15565b839150505b9392505050565b6000806000905060008360ff1603610a4557600160ff8016610a3e9190611cf0565b9050610bdc565b60018360ff1603610a6857600161ffff8016610a619190611cf0565b9050610bdb565b60028360ff1603610a8d57600163ffffffff8016610a869190611cf0565b9050610bda565b60038360ff1603610ab657600167ffffffffffffffff8016610aaf9190611cf0565b9050610bd9565b60048360ff1603610ae75760016fffffffffffffffffffffffffffffffff8016610ae09190611cf0565b9050610bd8565b60058360ff1603610afb5760019050610bd7565b60058360ff16118015610b115750600c8360ff16105b15610b51576040517f08c379a0000000000000000000000000000000000000000000000000000000008152600401610b4890611ee6565b60405180910390fd5b600c8360ff1603610b8657600173ffffffffffffffffffffffffffffffffffffffff8016610b7f9190611cf0565b9050610bd6565b600d8360ff1603610b9a5760019050610bd5565b6040517f08c379a0000000000000000000000000000000000000000000000000000000008152600401610bcc90611ee6565b60405180910390fd5b5b5b5b5b5b5b5b80915050919050565b6060600082610bf390611e33565b84610bfd90611e33565b189050610c0a81866112a1565b9150509392505050565b606081905092915050565b60606000610c2c85610a1c565b610c3584611126565b610c3f9190611d53565b610c4886610a1c565b610c5186611126565b610c5b9190611d53565b10159050610c6881610e46565b9150509392505050565b6060600082610c8090611e33565b84610c8a90611e33565b179050610c9781866112a1565b9150509392505050565b600080610cad83611126565b90508091505092915050565b606081905092915050565b60606000610cd185610a1c565b610cda84611126565b610ce49190611d53565b610ced86610a1c565b610cf686611126565b610d009190611d53565b119050610d0c81610e46565b9150509392505050565b6060610d29610d2484610a1c565b610fbc565b905092915050565b60606000610d3e85610a1c565b610d4784611126565b610d519190611d53565b610d5a86610a1c565b610d6386611126565b610d6d9190611d53565b149050610d7981610e46565b9150509392505050565b60606000610d9084611126565b90506000610d9d84611126565b905060008183901c9050610db081610fbc565b93505050509392505050565b60606000610dd1610dcc85611126565b6112cb565b9050809150509392505050565b6060600082610dec90611e33565b84610df690611e33565b169050610e0381866112a1565b9150509392505050565b60606000610e1a84611126565b90506000610e2784611126565b905060008183901b9050610e3a81610fbc565b93505050509392505050565b60606000600167ffffffffffffffff811115610e6557610e64611588565b5b6040519080825280601f01601f191660200182016040528015610e975781602001600182028036833780820191505090505b5090508215610eed57600160f81b81600081518110610eb957610eb8611f06565b5b60200101907effffffffffffffffffffffffffffffffffffffffffffffffffffffffffffff1916908160001a905350610f36565b600060f81b81600081518110610f0657610f05611f06565b5b60200101907effffffffffffffffffffffffffffffffffffffffffffffffffffffffffffff1916908160001a9053505b80915050919050565b60606000610f4c85610a1c565b610f5584611126565b610f5f9190611d53565b610f6886610a1c565b610f7186611126565b610f7b9190611d53565b109050610f8781610e46565b9150509392505050565b60606000610f9e85611453565b90508015610faf5783915050610fb4565b829150505b949350505050565b60606000602067ffffffffffffffff811115610fdb57610fda611588565b5b6040519080825280601f01601f19166020018201604052801561100d5781602001600182028036833780820191505090505b50905082602082015280915050919050565b6060600061102c85610a1c565b61103584611126565b61103e86611126565b6110489190611f35565b6110529190611d53565b905061105d81610fbc565b9150509392505050565b606060008261107590611e33565b19905061108281856112a1565b91505092915050565b6060600061109885610a1c565b6110a184611126565b6110ab9190611d53565b6110b486610a1c565b6110bd86611126565b6110c79190611d53565b111590506110d481610e46565b9150509392505050565b606060006110eb85610a1c565b6110f484611126565b6110fd86611126565b6111079190611d53565b6111119190611d53565b905061111c81610fbc565b9150509392505050565b600060208251111561116d576040517f08c379a000000000000000000000000000000000000000000000000000000000815260040161116490611fb5565b60405180910390fd5b60008251602061117d9190611f35565b67ffffffffffffffff81111561119657611195611588565b5b6040519080825280601f01601f1916602001820160405280156111c85781602001600182028036833780820191505090505b50836040516020016111db929190612011565b6040516020818303038152906040528060200190518101906111fd919061204a565b905080915050919050565b61129e8160405160240161121c9190611b26565b6040516020818303038152906040527f41304fac000000000000000000000000000000000000000000000000000000007bffffffffffffffffffffffffffffffffffffffffffffffffffffffff19166020820180517bffffffffffffffffffffffffffffffffffffffffffffffffffffffff83818316178352505050506114d0565b50565b6060826040516020016112b49190612098565b604051602081830303815290604052905092915050565b606060008203611312576040518060400160405280600181526020017f3000000000000000000000000000000000000000000000000000000000000000815250905061144e565b600082905060005b6000821461134457808061132d906120b3565b915050600a8261133d9190611d84565b915061131a565b60008167ffffffffffffffff8111156113605761135f611588565b5b6040519080825280601f01601f1916602001820160405280156113925781602001600182028036833780820191505090505b50905060008290505b60008614611446576001816113b09190611f35565b90506000600a80886113c29190611d84565b6113cc9190611db5565b876113d79190611f35565b60306113e391906120fb565b905060008160f81b90508084848151811061140157611400611f06565b5b60200101907effffffffffffffffffffffffffffffffffffffffffffffffffffffffffffff1916908160001a905350600a8861143d9190611d84565b9750505061139b565b819450505050505b919050565b600060208251111561149a576040517f08c379a000000000000000000000000000000000000000000000000000000000815260040161149190611fb5565b60405180910390fd5b6000826000815181106114b0576114af611f06565b5b602001015160f81c60f81b60f81c905060008160ff161415915050919050565b6114e7816114df6114ea61150b565b63ffffffff16565b50565b60006a636f6e736f6c652e6c6f679050600080835160208501845afa505050565b611516819050919050565b61151e612130565b565b6000604051905090565b600080fd5b600080fd5b600060ff82169050919050565b61154a81611534565b811461155557600080fd5b50565b60008135905061156781611541565b92915050565b600080fd5b600080fd5b6000601f19601f8301169050919050565b7f4e487b7100000000000000000000000000000000000000000000000000000000600052604160045260246000fd5b6115c082611577565b810181811067ffffffffffffffff821117156115df576115de611588565b5b80604052505050565b60006115f2611520565b90506115fe82826115b7565b919050565b600067ffffffffffffffff82111561161e5761161d611588565b5b61162782611577565b9050602081019050919050565b82818337600083830152505050565b600061165661165184611603565b6115e8565b90508281526020810184848401111561167257611671611572565b5b61167d848285611634565b509392505050565b600082601f83011261169a5761169961156d565b5b81356116aa848260208601611643565b91505092915050565b6000806000606084860312156116cc576116cb61152a565b5b60006116da86828701611558565b935050602084013567ffffffffffffffff8111156116fb576116fa61152f565b5b61170786828701611685565b925050604084013567ffffffffffffffff8111156117285761172761152f565b5b61173486828701611685565b9150509250925092565b600081519050919050565b600082825260208201905092915050565b60005b8381101561177857808201518184015260208101905061175d565b60008484015250505050565b600061178f8261173e565b6117998185611749565b93506117a981856020860161175a565b6117b281611577565b840191505092915050565b600060208201905081810360008301526117d78184611784565b905092915050565b600080604083850312156117f6576117f561152a565b5b600083013567ffffffffffffffff8111156118145761181361152f565b5b61182085828601611685565b925050602061183185828601611558565b9150509250929050565b600067ffffffffffffffff82111561185657611855611588565b5b61185f82611577565b9050602081019050919050565b600061187f61187a8461183b565b6115e8565b90508281526020810184848401111561189b5761189a611572565b5b6118a6848285611634565b509392505050565b600082601f8301126118c3576118c261156d565b5b81356118d384826020860161186c565b91505092915050565b6000602082840312156118f2576118f161152a565b5b600082013567ffffffffffffffff8111156119105761190f61152f565b5b61191c848285016118ae565b91505092915050565b60008060006060848603121561193e5761193d61152a565b5b600061194c86828701611558565b935050602084013567ffffffffffffffff81111561196d5761196c61152f565b5b61197986828701611685565b925050604061198a86828701611558565b9150509250925092565b6000602082840312156119aa576119a961152a565b5b60006119b884828501611558565b91505092915050565b6000819050919050565b6119d4816119c1565b82525050565b60006020820190506119ef60008301846119cb565b92915050565b60008060408385031215611a0c57611a0b61152a565b5b6000611a1a85828601611558565b925050602083013567ffffffffffffffff811115611a3b57611a3a61152f565b5b611a4785828601611685565b9150509250929050565b600067ffffffffffffffff82169050919050565b611a6e81611a51565b8114611a7957600080fd5b50565b600081359050611a8b81611a65565b92915050565b60008060408385031215611aa857611aa761152a565b5b6000611ab685828601611558565b9250506020611ac785828601611a7c565b9150509250929050565b600081519050919050565b600082825260208201905092915050565b6000611af882611ad1565b611b028185611adc565b9350611b1281856020860161175a565b611b1b81611577565b840191505092915050565b60006020820190508181036000830152611b408184611aed565b905092915050565b60008115159050919050565b611b5d81611b48565b8114611b6857600080fd5b50565b600081359050611b7a81611b54565b92915050565b600060208284031215611b9657611b9561152a565b5b6000611ba484828501611b6b565b91505092915050565b60008060008060808587031215611bc757611bc661152a565b5b6000611bd587828801611558565b945050602085013567ffffffffffffffff811115611bf657611bf561152f565b5b611c0287828801611685565b935050604085013567ffffffffffffffff811115611c2357611c2261152f565b5b611c2f87828801611685565b925050606085013567ffffffffffffffff811115611c5057611c4f61152f565b5b611c5c87828801611685565b91505092959194509250565b611c71816119c1565b8114611c7c57600080fd5b50565b600081359050611c8e81611c68565b92915050565b600060208284031215611caa57611ca961152a565b5b6000611cb884828501611c7f565b91505092915050565b7f4e487b7100000000000000000000000000000000000000000000000000000000600052601160045260246000fd5b6000611cfb826119c1565b9150611d06836119c1565b9250828201905080821115611d1e57611d1d611cc1565b5b92915050565b7f4e487b7100000000000000000000000000000000000000000000000000000000600052601260045260246000fd5b6000611d5e826119c1565b9150611d69836119c1565b925082611d7957611d78611d24565b5b828206905092915050565b6000611d8f826119c1565b9150611d9a836119c1565b925082611daa57611da9611d24565b5b828204905092915050565b6000611dc0826119c1565b9150611dcb836119c1565b9250828202611dd9816119c1565b91508282048414831517611df057611def611cc1565b5b5092915050565b6000819050602082019050919050565b6000819050919050565b6000611e1d8251611e07565b80915050919050565b600082821b905092915050565b6000611e3e8261173e565b82611e4884611df7565b9050611e5381611e11565b92506020821015611e9357611e8e7fffffffffffffffffffffffffffffffffffffffffffffffffffffffffffffffff83602003600802611e26565b831692505b5050919050565b7f556e737570706f72746564207479706500000000000000000000000000000000600082015250565b6000611ed0601083611adc565b9150611edb82611e9a565b602082019050919050565b60006020820190508181036000830152611eff81611ec3565b9050919050565b7f4e487b7100000000000000000000000000000000000000000000000000000000600052603260045260246000fd5b6000611f40826119c1565b9150611f4b836119c1565b9250828203905081811115611f6357611f62611cc1565b5b92915050565b7f4279746573206c656e67746820657863656564732033322e0000000000000000600082015250565b6000611f9f601883611adc565b9150611faa82611f69565b602082019050919050565b60006020820190508181036000830152611fce81611f92565b9050919050565b600081905092915050565b6000611feb8261173e565b611ff58185611fd5565b935061200581856020860161175a565b80840191505092915050565b600061201d8285611fe0565b91506120298284611fe0565b91508190509392505050565b60008151905061204481611c68565b92915050565b6000602082840312156120605761205f61152a565b5b600061206e84828501612035565b91505092915050565b6000819050919050565b61209261208d82611e07565b612077565b82525050565b60006120a48284612081565b60208201915081905092915050565b60006120be826119c1565b91507fffffffffffffffffffffffffffffffffffffffffffffffffffffffffffffffff82036120f0576120ef611cc1565b5b600182019050919050565b600061210682611534565b915061211183611534565b9250828201905060ff81111561212a57612129611cc1565b5b92915050565b7f4e487b7100000000000000000000000000000000000000000000000000000000600052605160045260246000fdfe28282d282d5f282d5f2d295f2d292d292920596f75277665207374657070656420696e746f207468652077726f6e67206e65696768626f72686f6f642070616c2ea26469706673582212202cf408d856880aeda791dea62689537626e59637da7ed270b963677272a0519464736f6c63430008140033",
  "linkReferences": {},
  "deployedLinkReferences": {}
}